{"abi":[{"type":"constructor","inputs":[],"stateMutability":"nonpayable"},{"type":"function","name":"ADMIN_ROLE","inputs":[],"outputs":[{"name":"","type":"bytes32","internalType":"bytes32"}],"stateMutability":"view"},{"type":"function","name":"DEFAULT_ADMIN_ROLE","inputs":[],"outputs":[{"name":"","type":"bytes32","internalType":"bytes32"}],"stateMutability":"view"},{"type":"function","name":"MAX_DESCRIPTION_LENGTH","inputs":[],"outputs":[{"name":"","type":"uint256","internalType":"uint256"}],"stateMutability":"view"},{"type":"function","name":"MAX_EQUIPMENT_LENGTH","inputs":[],"outputs":[{"name":"","type":"uint256","internalType":"uint256"}],"stateMutability":"view"},{"type":"function","name":"MAX_TAGS","inputs":[],"outputs":[{"name":"","type":"uint256","internalType":"uint256"}],"stateMutability":"view"},{"type":"function","name":"MAX_TITLE_LENGTH","inputs":[],"outputs":[{"name":"","type":"uint256","internalType":"uint256"}],"stateMutability":"view"},{"type":"function","name":"MIN_RECORDING_INTERVAL","inputs":[],"outputs":[{"name":"","type":"uint256","internalType":"uint256"}],"stateMutability":"view"},{"type":"function","name":"MODERATOR_ROLE","inputs":[],"outputs":[{"name":"","type":"bytes32","internalType":"bytes32"}],"stateMutability":"view"},{"type":"function","name":"addRecording","inputs":[{"name":"_title","type":"string","internalType":"string"},{"name":"_description","type":"string","internalType":"string"},{"name":"_ipfsHash","type":"string","internalType":"string"},{"name":"_latitude","type":"int256","internalType":"int256"},{"name":"_longitude","type":"int256","internalType":"int256"},{"name":"_tags","type":"string[]","internalType":"string[]"},{"name":"_duration","type":"uint256","internalType":"uint256"},{"name":"_quality","type":"uint8","internalType":"enum RecordingManager.AudioQuality"},{"name":"_equipment","type":"string","internalType":"string"},{"name":"_license","type":"uint8","internalType":"enum LicenseManager.LicenseType"}],"outputs":[],"stateMutability":"nonpayable"},{"type":"function","name":"getRecording","inputs":[{"name":"_recordingId","type":"uint256","internalType":"uint256"}],"outputs":[{"name":"core","type":"tuple","internalType":"struct RecordingManager.RecordingCore","components":[{"name":"id","type":"uint256","internalType":"uint256"},{"name":"creator","type":"address","internalType":"address"},{"name":"ipfsHash","type":"string","internalType":"string"},{"name":"latitude","type":"int256","internalType":"int256"},{"name":"longitude","type":"int256","internalType":"int256"},{"name":"timestamp","type":"uint256","internalType":"uint256"},{"name":"isActive","type":"bool","internalType":"bool"}]},{"name":"metadata","type":"tuple","internalType":"struct RecordingManager.RecordingMetadata","components":[{"name":"title","type":"string","internalType":"string"},{"name":"description","type":"string","internalType":"string"},{"name":"tags","type":"string[]","internalType":"string[]"},{"name":"duration","type":"uint256","internalType":"uint256"},{"name":"quality","type":"uint8","internalType":"enum RecordingManager.AudioQuality"},{"name":"equipment","type":"string","internalType":"string"},{"name":"license","type":"uint8","internalType":"enum LicenseManager.LicenseType"},{"name":"status","type":"uint8","internalType":"enum RecordingManager.ModerationStatus"}]},{"name":"stats","type":"tuple","internalType":"struct RecordingManager.RecordingStats","components":[{"name":"upvotes","type":"uint256","internalType":"uint256"},{"name":"downvotes","type":"uint256","internalType":"uint256"},{"name":"totalRating","type":"uint256","internalType":"uint256"},{"name":"ratingCount","type":"uint256","internalType":"uint256"}]}],"stateMutability":"view"},{"type":"function","name":"getRecordingCore","inputs":[{"name":"_recordingId","type":"uint256","internalType":"uint256"}],"outputs":[{"name":"","type":"tuple","internalType":"struct RecordingManager.RecordingCore","components":[{"name":"id","type":"uint256","internalType":"uint256"},{"name":"creator","type":"address","internalType":"address"},{"name":"ipfsHash","type":"string","internalType":"string"},{"name":"latitude","type":"int256","internalType":"int256"},{"name":"longitude","type":"int256","internalType":"int256"},{"name":"timestamp","type":"uint256","internalType":"uint256"},{"name":"isActive","type":"bool","internalType":"bool"}]}],"stateMutability":"view"},{"type":"function","name":"getRecordingMetadata","inputs":[{"name":"_recordingId","type":"uint256","internalType":"uint256"}],"outputs":[{"name":"","type":"tuple","internalType":"struct RecordingManager.RecordingMetadata","components":[{"name":"title","type":"string","internalType":"string"},{"name":"description","type":"string","internalType":"string"},{"name":"tags","type":"string[]","internalType":"string[]"},{"name":"duration","type":"uint256","internalType":"uint256"},{"name":"quality","type":"uint8","internalType":"enum RecordingManager.AudioQuality"},{"name":"equipment","type":"string","internalType":"string"},{"name":"license","type":"uint8","internalType":"enum LicenseManager.LicenseType"},{"name":"status","type":"uint8","internalType":"enum RecordingManager.ModerationStatus"}]}],"stateMutability":"view"},{"type":"function","name":"getRecordingStats","inputs":[{"name":"_recordingId","type":"uint256","internalType":"uint256"}],"outputs":[{"name":"","type":"tuple","internalType":"struct RecordingManager.RecordingStats","components":[{"name":"upvotes","type":"uint256","internalType":"uint256"},{"name":"downvotes","type":"uint256","internalType":"uint256"},{"name":"totalRating","type":"uint256","internalType":"uint256"},{"name":"ratingCount","type":"uint256","internalType":"uint256"}]}],"stateMutability":"view"},{"type":"function","name":"getRecordingsByLocation","inputs":[{"name":"_minLat","type":"int256","internalType":"int256"},{"name":"_maxLat","type":"int256","internalType":"int256"},{"name":"_minLng","type":"int256","internalType":"int256"},{"name":"_maxLng","type":"int256","internalType":"int256"},{"name":"_offset","type":"uint256","internalType":"uint256"},{"name":"_limit","type":"uint256","internalType":"uint256"}],"outputs":[{"name":"","type":"uint256[]","internalType":"uint256[]"}],"stateMutability":"view"},{"type":"function","name":"getRecordingsByStatus","inputs":[{"name":"_status","type":"uint8","internalType":"enum RecordingManager.ModerationStatus"},{"name":"_offset","type":"uint256","internalType":"uint256"},{"name":"_limit","type":"uint256","internalType":"uint256"}],"outputs":[{"name":"","type":"uint256[]","internalType":"uint256[]"}],"stateMutability":"view"},{"type":"function","name":"getRoleAdmin","inputs":[{"name":"role","type":"bytes32","internalType":"bytes32"}],"outputs":[{"name":"","type":"bytes32","internalType":"bytes32"}],"stateMutability":"view"},{"type":"function","name":"getTotalRecordings","inputs":[],"outputs":[{"name":"","type":"uint256","internalType":"uint256"}],"stateMutability":"view"},{"type":"function","name":"getUserRecordings","inputs":[{"name":"_userAddress","type":"address","internalType":"address"}],"outputs":[{"name":"","type":"uint256[]","internalType":"uint256[]"}],"stateMutability":"view"},{"type":"function","name":"grantRole","inputs":[{"name":"role","type":"bytes32","internalType":"bytes32"},{"name":"account","type":"address","internalType":"address"}],"outputs":[],"stateMutability":"nonpayable"},{"type":"function","name":"hasRole","inputs":[{"name":"role","type":"bytes32","internalType":"bytes32"},{"name":"account","type":"address","internalType":"address"}],"outputs":[{"name":"","type":"bool","internalType":"bool"}],"stateMutability":"view"},{"type":"function","name":"isLocationUsed","inputs":[{"name":"_latitude","type":"int256","internalType":"int256"},{"name":"_longitude","type":"int256","internalType":"int256"},{"name":"_ipfsHash","type":"string","internalType":"string"}],"outputs":[{"name":"","type":"bool","internalType":"bool"}],"stateMutability":"view"},{"type":"function","name":"locationHashes","inputs":[{"name":"","type":"bytes32","internalType":"bytes32"}],"outputs":[{"name":"","type":"bool","internalType":"bool"}],"stateMutability":"view"},{"type":"function","name":"pause","inputs":[],"outputs":[],"stateMutability":"nonpayable"},{"type":"function","name":"paused","inputs":[],"outputs":[{"name":"","type":"bool","internalType":"bool"}],"stateMutability":"view"},{"type":"function","name":"recordingCore","inputs":[{"name":"","type":"uint256","internalType":"uint256"}],"outputs":[{"name":"id","type":"uint256","internalType":"uint256"},{"name":"creator","type":"address","internalType":"address"},{"name":"ipfsHash","type":"string","internalType":"string"},{"name":"latitude","type":"int256","internalType":"int256"},{"name":"longitude","type":"int256","internalType":"int256"},{"name":"timestamp","type":"uint256","internalType":"uint256"},{"name":"isActive","type":"bool","internalType":"bool"}],"stateMutability":"view"},{"type":"function","name":"recordingMetadata","inputs":[{"name":"","type":"uint256","internalType":"uint256"}],"outputs":[{"name":"title","type":"string","internalType":"string"},{"name":"description","type":"string","internalType":"string"},{"name":"duration","type":"uint256","internalType":"uint256"},{"name":"quality","type":"uint8","internalType":"enum RecordingManager.AudioQuality"},{"name":"equipment","type":"string","internalType":"string"},{"name":"license","type":"uint8","internalType":"enum LicenseManager.LicenseType"},{"name":"status","type":"uint8","internalType":"enum RecordingManager.ModerationStatus"}],"stateMutability":"view"},{"type":"function","name":"recordingStats","inputs":[{"name":"","type":"uint256","internalType":"uint256"}],"outputs":[{"name":"upvotes","type":"uint256","internalType":"uint256"},{"name":"downvotes","type":"uint256","internalType":"uint256"},{"name":"totalRating","type":"uint256","internalType":"uint256"},{"name":"ratingCount","type":"uint256","internalType":"uint256"}],"stateMutability":"view"},{"type":"function","name":"renounceRole","inputs":[{"name":"role","type":"bytes32","internalType":"bytes32"},{"name":"callerConfirmation","type":"address","internalType":"address"}],"outputs":[],"stateMutability":"nonpayable"},{"type":"function","name":"revokeRole","inputs":[{"name":"role","type":"bytes32","internalType":"bytes32"},{"name":"account","type":"address","internalType":"address"}],"outputs":[],"stateMutability":"nonpayable"},{"type":"function","name":"supportsInterface","inputs":[{"name":"interfaceId","type":"bytes4","internalType":"bytes4"}],"outputs":[{"name":"","type":"bool","internalType":"bool"}],"stateMutability":"view"},{"type":"function","name":"unpause","inputs":[],"outputs":[],"stateMutability":"nonpayable"},{"type":"function","name":"updateRecordingMetadata","inputs":[{"name":"_recordingId","type":"uint256","internalType":"uint256"},{"name":"_title","type":"string","internalType":"string"},{"name":"_description","type":"string","internalType":"string"},{"name":"_tags","type":"string[]","internalType":"string[]"},{"name":"_equipment","type":"string","internalType":"string"},{"name":"_license","type":"uint8","internalType":"enum LicenseManager.LicenseType"}],"outputs":[],"stateMutability":"nonpayable"},{"type":"function","name":"userLastRecordingTime","inputs":[{"name":"","type":"address","internalType":"address"}],"outputs":[{"name":"","type":"uint256","internalType":"uint256"}],"stateMutability":"view"},{"type":"function","name":"userRecordings","inputs":[{"name":"","type":"address","internalType":"address"},{"name":"","type":"uint256","internalType":"uint256"}],"outputs":[{"name":"","type":"uint256","internalType":"uint256"}],"stateMutability":"view"},{"type":"event","name":"Paused","inputs":[{"name":"account","type":"address","indexed":false,"internalType":"address"}],"anonymous":false},{"type":"event","name":"RecordingAdded","inputs":[{"name":"recordingId","type":"uint256","indexed":true,"internalType":"uint256"},{"name":"creator","type":"address","indexed":true,"internalType":"address"},{"name":"ipfsHash","type":"string","indexed":false,"internalType":"string"}],"anonymous":false},{"type":"event","name":"RecordingUpdated","inputs":[{"name":"recordingId","type":"uint256","indexed":true,"internalType":"uint256"},{"name":"updater","type":"address","indexed":true,"internalType":"address"}],"anonymous":false},{"type":"event","name":"RoleAdminChanged","inputs":[{"name":"role","type":"bytes32","indexed":true,"internalType":"bytes32"},{"name":"previousAdminRole","type":"bytes32","indexed":true,"internalType":"bytes32"},{"name":"newAdminRole","type":"bytes32","indexed":true,"internalType":"bytes32"}],"anonymous":false},{"type":"event","name":"RoleGranted","inputs":[{"name":"role","type":"bytes32","indexed":true,"internalType":"bytes32"},{"name":"account","type":"address","indexed":true,"internalType":"address"},{"name":"sender","type":"address","indexed":true,"internalType":"address"}],"anonymous":false},{"type":"event","name":"RoleRevoked","inputs":[{"name":"role","type":"bytes32","indexed":true,"internalType":"bytes32"},{"name":"account","type":"address","indexed":true,"internalType":"address"},{"name":"sender","type":"address","indexed":true,"internalType":"address"}],"anonymous":false},{"type":"event","name":"Unpaused","inputs":[{"name":"account","type":"address","indexed":false,"internalType":"address"}],"anonymous":false},{"type":"error","name":"AccessControlBadConfirmation","inputs":[]},{"type":"error","name":"AccessControlUnauthorizedAccount","inputs":[{"name":"account","type":"address","internalType":"address"},{"name":"neededRole","type":"bytes32","internalType":"bytes32"}]},{"type":"error","name":"EnforcedPause","inputs":[]},{"type":"error","name":"ExpectedPause","inputs":[]},{"type":"error","name":"ReentrancyGuardReentrantCall","inputs":[]}],"bytecode":{"object":"0x60806040523461003a57600180556100163361003e565b50610020336100b4565b5061002a33610147565b50604051612d1790816101db8239f35b5f80fd5b6001600160a01b0381165f9081525f516020612f525f395f51905f52602052604090205460ff166100af576001600160a01b03165f8181525f516020612f525f395f51905f5260205260408120805460ff191660011790553391905f516020612ef25f395f51905f528180a4600190565b505f90565b6001600160a01b0381165f9081525f516020612f125f395f51905f52602052604090205460ff166100af576001600160a01b03165f8181525f516020612f125f395f51905f5260205260408120805460ff191660011790553391907fa49807205ce4d355092ef5a8a18f56e8913cf4a201fbe287825b095693c21775905f516020612ef25f395f51905f529080a4600190565b6001600160a01b0381165f9081525f516020612f325f395f51905f52602052604090205460ff166100af576001600160a01b03165f8181525f516020612f325f395f51905f5260205260408120805460ff191660011790553391907f71f3d55856e4058ed06ee057d79ada615f65cdf5f9ee88181b914225088f834f905f516020612ef25f395f51905f529080a460019056fe60806040526004361015610011575f80fd5b5f3560e01c8062ad1f541461022e57806301ffc9a7146102295780630446035414610224578063248a9ca31461021f57806327ec4f681461021a5780632ef9a160146101e85780632f2ff15d146102155780632fb6d1841461021057806336568abe1461020b5780633ee8684b146102065780633f4ba83a1461020157806351b99c98146101fc578063572df5f0146101f75780635c975abb146101f25780635f52d2f4146101ed578063648fe35a146101e85780636a8a5b2c146101e357806375b238fc146101de578063797669c9146101d95780637dffe8f2146101d45780638456cb59146101cf57806391d14854146101ca5780639201ea0a146101c5578063a1bd2bdf146101c0578063a217fddf146101bb578063a990a4f9146101b6578063b8453a01146101b1578063c37e73a7146101ac578063c7caea9e146101a7578063cc021797146101a2578063cce672261461019d578063d547741f14610198578063da41942a146101935763ee5a7ac41461018e575f80fd5b611419565b6113c4565b611359565b61133e565b6112cd565b6111d6565b6111b9565b611154565b610f48565b610f2e565b610ee2565b610ec6565b610e77565b610e1e565b610de6565b610dac565b610d72565b610c92565b61082f565b610c63565b610c41565b610b91565b610af7565b610a78565b610a13565b6109b6565b6108a5565b61084a565b610699565b610667565b6105e9565b6104e3565b61043f565b805180835260209291819084018484015e5f828201840152601f01601f1916010190565b90815181526001600160a01b03602083015116602082015260c08061028b604085015160e0604086015260e0850190610233565b93606081015160608501526080810151608085015260a081015160a08501520151151591015290565b9080602083519182815201916020808360051b8301019401925f915b8383106102df57505050505090565b90919293946020806102fd600193601f198682030187528951610233565b970193019301919392906102d0565b634e487b7160e01b5f52602160045260245ffd5b6004111561032a57565b61030c565b9061033982610320565b52565b6008111561032a57565b90600882101561032a5752565b906103e89060e0806103cb61039d61038b61037988516101008852610100880190610233565b60208901518782036020890152610233565b604088015186820360408801526102b4565b606087015160608601526103b96080880151608087019061032f565b60a087015185820360a0870152610233565b946103de60c082015160c0860190610346565b015191019061032f565b90565b93929061041761043d9361040960409360c0895260c0890190610257565b908782036020890152610353565b940190606080918051845260208101516020850152604081015160408501520151910152565b565b346104df5760203660031901126104df5760043561045b6114ac565b506104646114e3565b5061046d611535565b50801515806104d3575b61048090611559565b805f52600460205260405f2090805f52600560205260405f20905f5260066020526104cf6104c36104bd6104b760405f20956115a4565b93611696565b93611736565b604051938493846103eb565b0390f35b50600354811115610477565b5f80fd5b346104df5760203660031901126104df576004357fffffffff0000000000000000000000000000000000000000000000000000000081168091036104df57807f7965db0b000000000000000000000000000000000000000000000000000000006020921490811561055a575b506040519015158152f35b7f01ffc9a7000000000000000000000000000000000000000000000000000000009150145f61054f565b600435906001600160a01b03821682036104df57565b602435906001600160a01b03821682036104df57565b60206040818301928281528451809452019201905f5b8181106105d35750505090565b82518452602093840193909201916001016105c6565b346104df5760203660031901126104df576001600160a01b0361060a610584565b165f52600860205260405f206040519081602082549182815201915f5260205f20905f5b818110610651576104cf856106458187038261104e565b604051918291826105b0565b825484526020909301926001928301920161062e565b346104df5760203660031901126104df5760206106916004355f525f602052600160405f20015490565b604051908152f35b346104df5760c03660031901126104df57600435602435906044356064359060843560a435936106cc6064861115611768565b8581131580610825575b6106df906117b3565b6106e8856117fe565b935f965f94600197600354985b898111158061081c575b1561080b57610716815f52600460205260405f2090565b85610725600683015460ff1690565b91826107d5575b826107c5575b826107b5575b826107a5575b82610796575b5050610759575b61075490611844565b6106f5565b9986881061078257610779818c610773610754948d611857565b52611844565b9a5b905061074b565b999661079061075491611844565b9761077b565b6004015413159050855f610744565b915084600483015412159161073e565b9150856003830154131591610738565b9150876003830154121591610732565b915060016107fb60066107f0865f52600560205260405f2090565b015460081c60ff1690565b61080481610320565b149161072c565b8a8952604051806104cf8b826105b0565b50818b106106ff565b50838313156106d6565b346104df575f3660031901126104df57602060405160648152f35b346104df5760403660031901126104df5761088c60043561086961059a565b90610887610882825f525f602052600160405f20015490565b612b05565b612b4c565b005b600411156104df57565b60e4359061043d8261088e565b346104df5760603660031901126104df576004356108c28161088e565b60243590604435906108d76064831115611768565b6108e0826117fe565b905f935f91600194600354955b86811115806109ad575b1561099c5761091b6006610913835f52600460205260405f2090565b015460ff1690565b8061096b575b610934575b61092f90611844565b6108ed565b968385106109575761094e818961077361092f948a611857565b975b9050610926565b969361096561092f91611844565b94610950565b508261098460066107f0845f52600560205260405f2090565b61098d82610320565b61099681610320565b14610921565b878652604051806104cf88826105b0565b508188106108f7565b346104df5760403660031901126104df576004356109d261059a565b336001600160a01b038216036109eb5761088c91612be4565b7f6697b232000000000000000000000000000000000000000000000000000000005f5260045ffd5b346104df5760203660031901126104df57600435610a2f6114ac565b5080151580610a6c575b610a4290611559565b5f5260046020526104cf610a5860405f206115a4565b604051918291602083526020830190610257565b50600354811115610a39565b346104df575f3660031901126104df57610a90612a96565b60025460ff811615610acf5760ff19166002557f5db9ee0a495bf2e6ff9c91a7834c1ba4fdd244a5e8aa4e537bd38aeae4b073aa6020604051338152a1005b7f8dfc202b000000000000000000000000000000000000000000000000000000005f5260045ffd5b346104df575f3660031901126104df57602060405161012c8152f35b9181601f840112156104df5782359167ffffffffffffffff83116104df57602083818601950101116104df57565b9181601f840112156104df5782359167ffffffffffffffff83116104df576020808501948460051b0101116104df57565b60a4359060088210156104df57565b610124359060088210156104df57565b346104df5760c03660031901126104df5760043560243567ffffffffffffffff81116104df57610bc5903690600401610b13565b60449291923567ffffffffffffffff81116104df57610be8903690600401610b13565b60649491943567ffffffffffffffff81116104df57610c0b903690600401610b41565b916084359667ffffffffffffffff88116104df57610c3061088c983690600401610b13565b969095610c3b610b72565b9861186b565b346104df575f3660031901126104df57602060ff600254166040519015158152f35b346104df5760203660031901126104df576004355f526007602052602060ff60405f2054166040519015158152f35b346104df576101403660031901126104df5760043567ffffffffffffffff81116104df57610cc4903690600401610b13565b9060243567ffffffffffffffff81116104df57610ce5903690600401610b13565b9260443567ffffffffffffffff81116104df57610d06903690600401610b13565b60843560643560a43567ffffffffffffffff81116104df57610d2c903690600401610b41565b92909160c43594610d3b610898565b96610104359b67ffffffffffffffff8d116104df57610d6161088c9d3690600401610b13565b9b909a610d6c610b81565b9d612014565b346104df575f3660031901126104df5760206040517fa49807205ce4d355092ef5a8a18f56e8913cf4a201fbe287825b095693c217758152f35b346104df575f3660031901126104df5760206040517f71f3d55856e4058ed06ee057d79ada615f65cdf5f9ee88181b914225088f834f8152f35b346104df5760203660031901126104df576001600160a01b03610e07610584565b165f526009602052602060405f2054604051908152f35b346104df575f3660031901126104df57610e36612a96565b610e3e612c74565b600160ff1960025416176002557f62e78cea01bee320cd4e420270b5ea74000d11b0c9f74754ebdbfc544b05a2586020604051338152a1005b346104df5760403660031901126104df57602060ff610eba600435610e9a61059a565b905f525f845260405f20906001600160a01b03165f5260205260405f2090565b54166040519015158152f35b346104df575f3660031901126104df5760206040516101f48152f35b346104df5760203660031901126104df576004355f526006602052608060405f208054906001810154906003600282015491015491604051938452602084015260408301526060820152f35b346104df575f3660031901126104df5760206040515f8152f35b346104df5760203660031901126104df57600435610f64611535565b5080151580610fb9575b610f7790611559565b5f5260066020526080610f8c60405f20611736565b610fb76040518092606080918051845260208101516020850152604081015160408501520151910152565bf35b50600354811115610f6e565b90600182811c92168015610ff3575b6020831014610fdf57565b634e487b7160e01b5f52602260045260245ffd5b91607f1691610fd4565b634e487b7160e01b5f52604160045260245ffd5b60e0810190811067ffffffffffffffff82111761102d57604052565b610ffd565b6080810190811067ffffffffffffffff82111761102d57604052565b90601f8019910116810190811067ffffffffffffffff82111761102d57604052565b9060405191825f82549261108384610fc5565b80845293600181169081156110ec57506001146110a8575b5061043d9250038361104e565b90505f9291925260205f20905f915b8183106110d057505090602061043d928201015f61109b565b60209193508060019154838589010152019101909184926110b7565b90506020925061043d94915060ff191682840152151560051b8201015f61109b565b95926001600160a01b0360c0969361113d939a99969a895216602088015260e0604088015260e0870190610233565b966060860152608085015260a08401521515910152565b346104df5760203660031901126104df576004355f52600460205260405f2080546104cf6001600160a01b036001840154169261119360028201611070565b90600381015460048201549060ff6006600585015494015416936040519788978861110e565b346104df575f3660031901126104df576020600354604051908152f35b346104df5760603660031901126104df5760043560243560443567ffffffffffffffff81116104df5761122891611214611236923690600401610b13565b604094919451948593602085019788612510565b03601f19810183528261104e565b5190205f5260076020526104cf60ff60405f20541660405191829182919091602081019215159052565b939460c0956112946112b5946112866112c097959c9b9a9c60e08a5260e08a0190610233565b9088820360208a0152610233565b9260408701526112a381610320565b60608601528482036080860152610233565b9560a0830190610346565b6112c983610320565b0152565b346104df5760203660031901126104df576004355f52600560205260405f206112f581611070565b906104cf61130560018301611070565b9160038101549360ff60048301541691600661132360058301611070565b9101549260405196879660ff808760081c1696169488611260565b346104df575f3660031901126104df576020604051600a8152f35b346104df5760403660031901126104df5761088c60043561137861059a565b90611391610882825f525f602052600160405f20015490565b612be4565b634e487b7160e01b5f52603260045260245ffd5b80548210156113bf575f5260205f2001905f90565b611396565b346104df5760403660031901126104df576113dd610584565b6001600160a01b0360243591165f52600860205260405f2080548210156104df5760209161140a916113aa565b90549060031b1c604051908152f35b346104df5760203660031901126104df576004356114356114e3565b5080151580611472575b61144890611559565b5f5260056020526104cf61145e60405f20611696565b604051918291602083526020830190610353565b5060035481111561143f565b6040519061043d6101008361104e565b6040519061043d60e08361104e565b6040519061043d60808361104e565b604051906114b982611011565b5f60c083828152826020820152606060408201528260608201528260808201528260a08201520152565b60405190610100820182811067ffffffffffffffff82111761102d576040525f60e083606081526060602082015260606040820152826060820152826080820152606060a08201528260c08201520152565b6040519061154282611032565b5f6060838281528260208201528260408201520152565b1561156057565b606460405162461bcd60e51b815260206004820152601860248201527f5265636f7264696e6720646f6573206e6f7420657869737400000000000000006044820152fd5b9061043d6040516115b481611011565b60c061160d60068396805485526001600160a01b03806001830154161660208601526115e260028201611070565b60408601526003810154606086015260048101546080860152600581015460a0860152015460ff1690565b1515910152565b67ffffffffffffffff811161102d5760051b60200190565b90815461163881611614565b92611646604051948561104e565b81845260208401905f5260205f205f915b8383106116645750505050565b60016020819261167385611070565b815201920192019190611657565b61033982610320565b600882101561032a5752565b9061043d6040516116a96101008261104e565b60e061172f600683966116bb81611070565b85526116c960018201611070565b60208601526116da6002820161162c565b6040860152600381015460608601526117036116fa600483015460ff1690565b60808701611681565b61170f60058201611070565b60a0860152015461172660ff821660c0860161168a565b60081c60ff1690565b9101611681565b9060405161174381611032565b6060600382948054845260018101546020850152600281015460408501520154910152565b1561176f57565b606460405162461bcd60e51b815260206004820152600e60248201527f4c696d697420746f6f20686967680000000000000000000000000000000000006044820152fd5b156117ba57565b606460405162461bcd60e51b815260206004820152601860248201527f496e76616c696420636f6f7264696e6174652072616e676500000000000000006044820152fd5b9061180882611614565b611815604051918261104e565b8281528092611826601f1991611614565b0190602036910137565b634e487b7160e01b5f52601160045260245ffd5b5f1981146118525760010190565b611830565b80518210156113bf5760209160051b010190565b98979695949392919089151580611aa9575b61188690611559565b895f52600460205260ff600660405f2001541615611a65576118a6612c74565b6118ae612ca8565b6118e66118d660016118c88d5f52600460205260405f2090565b01546001600160a01b031690565b6001600160a01b03163314611ab5565b61190f61190060066107f08d5f52600560205260405f2090565b61190981610320565b15611b00565b83151580611a59575b61192190611b71565b61192e6064831115611bbc565b61193b6064891115611c07565b611948600a871115611c52565b895f5b878110611a135750936119e4999896936119826119ca99979461199c9461197d6119b6995f52600560205260405f2090565b611d8f565b60016119968d5f52600560205260405f2090565b01611d8f565b60026119b08a5f52600560205260405f2090565b01611ef4565b6005611996875f52600560205260405f2090565b60066119de845f52600560205260405f2090565b01611ffc565b33907f55a20f861d14e94596f8cc53877657ce7ee18d30f0a96d60c1e567478e824b065f80a361043d60018055565b60019150611a22818989611cd0565b9050151580611a3d575b611a3590611ceb565b018a9061194b565b50611a356020611a4e838b8b611cd0565b905011159050611a2c565b506101f4841115611918565b606460405162461bcd60e51b815260206004820152601560248201527f5265636f7264696e6720697320696e61637469766500000000000000000000006044820152fd5b506003548a111561187d565b15611abc57565b606460405162461bcd60e51b815260206004820152601760248201527f4f6e6c792063726561746f722063616e207570646174650000000000000000006044820152fd5b15611b0757565b608460405162461bcd60e51b815260206004820152602a60248201527f43616e6e6f742075706461746520617070726f7665642f72656a65637465642060448201527f7265636f7264696e6773000000000000000000000000000000000000000000006064820152fd5b15611b7857565b606460405162461bcd60e51b815260206004820152601360248201527f496e76616c6964206465736372697074696f6e000000000000000000000000006044820152fd5b15611bc357565b606460405162461bcd60e51b815260206004820152600e60248201527f5469746c6520746f6f206c6f6e670000000000000000000000000000000000006044820152fd5b15611c0e57565b606460405162461bcd60e51b815260206004820152601e60248201527f45717569706d656e74206465736372697074696f6e20746f6f206c6f6e6700006044820152fd5b15611c5957565b606460405162461bcd60e51b815260206004820152600d60248201527f546f6f206d616e792074616773000000000000000000000000000000000000006044820152fd5b903590601e19813603018212156104df570180359067ffffffffffffffff82116104df576020019181360383136104df57565b908210156113bf57611ce79160051b810190611c9d565b9091565b15611cf257565b606460405162461bcd60e51b815260206004820152601260248201527f496e76616c696420746167206c656e67746800000000000000000000000000006044820152fd5b818110611d41575050565b5f8155600101611d36565b9190601f8111611d5b57505050565b61043d925f5260205f20906020601f840160051c83019310611d85575b601f0160051c0190611d36565b9091508190611d78565b90929167ffffffffffffffff811161102d57611db581611daf8454610fc5565b84611d4c565b5f601f8211600114611df3578190611de49394955f92611de8575b50508160011b915f199060031b1c19161790565b9055565b013590505f80611dd0565b601f19821694611e06845f5260205f2090565b915f5b878110611e40575083600195969710611e27575b505050811b019055565b01355f19600384901b60f8161c191690555f8080611e1d565b90926020600181928686013581550194019101611e09565b9068010000000000000000811161102d57815491818155828210611e7b57505050565b5f5260205f2091820191015b818110611e92575050565b80611e9f60019254610fc5565b80611eac575b5001611e87565b601f81118314611ec157505f81555b5f611ea5565b611ee39083601f611ed5855f5260205f2090565b920160051c82019101611d36565b5f8181526020812081835555611ebb565b919091611f018282611e58565b5f9081526020812092805b838310611f1a575050505050565b611f248183611c9d565b9067ffffffffffffffff821161102d57611f4882611f428954610fc5565b89611d4c565b5f90601f8311600114611f8c5792611f7d836001959460209487965f92611de85750508160011b915f199060031b1c19161790565b88555b01950192019193611f0c565b601f19831691611f9f895f5260205f2090565b925f5b818110611fe45750936020936001969387969383889510611fcb575b505050811b018855611f80565b01355f19600384901b60f8161c191690555f8080611fbe565b91936020600181928787013581550195019201611fa2565b90600881101561032a5760ff80198354169116179055565b9d9c9b9a9998979695949392919063055d4a7f19861215806120e9575b156120a557630aba94ff1987121580612097575b156120535761043d9e6120f7565b606460405162461bcd60e51b815260206004820152601160248201527f496e76616c6964206c6f6e6769747564650000000000000000000000000000006044820152fd5b50630aba9500871315612045565b606460405162461bcd60e51b815260206004820152601060248201527f496e76616c6964206c61746974756465000000000000000000000000000000006044820152fd5b5063055d4a80861315612031565b909a969d99959b98939c97949d92919261210f612c74565b612117612ca8565b335f52600960205260405f205461012c8101809111611852574210612410576121418f151561247a565b82151580612404575b8f918f918f908f60649061216061216793611b71565b1115611bbc565b61217460648d1115611c07565b612181600a891115611c52565b61218c8a15156124c5565b5f5b8881106123b5575081906040518091868660208401956121ae9387612510565b03601f19810182526121c0908261104e565b5190209e8f6121d7905f52600760205260405f2090565b5460ff16156121e59061252b565b6003546121f190611844565b6003556003549261220061148e565b8481523360208201529436906122159261259b565b6040850152606084015260808301524260a0830152600160c0830152612243905f52600460205260405f2090565b9061224d916126a1565b61225561147e565b9a36906122619261259b565b8a52369061226e9261259b565b6020890152369061227e9261272c565b604087015260608601526122959060808601611681565b36906122a09261259b565b60a08301526122b29060c0830161168a565b5f60e082018190526003548152600560205260409020906122d2916128e5565b6122da61149d565b5f8152602081015f9052604081015f9052606081015f9052600354612307905f52600660205260405f2090565b81518155602082015160018201556040820151600282015560609091015160039091015561233d905f52600760205260405f2090565b805460ff19166001179055335f90815260086020526040902060035461236291612a36565b335f90815260096020526040902042905560035490604051809133946123889183612a6f565b037f1a8760f6c10e6677aab41d95080b7768292506a61df09187df576bdcea1bc50c91a361043d60018055565b80929450600193506123c99150888a611cd0565b90501515806123e8575b6123dc90611ceb565b018f918f918f9061218e565b506123dc60206123f9838a8c611cd0565b9050111590506123d3565b506101f483111561214a565b608460405162461bcd60e51b815260206004820152602860248201527f5265636f7264696e6720746f6f20736f6f6e206166746572206c61737420737560448201527f626d697373696f6e0000000000000000000000000000000000000000000000006064820152fd5b1561248157565b606460405162461bcd60e51b815260206004820152601260248201527f49504653206861736820726571756972656400000000000000000000000000006044820152fd5b156124cc57565b606460405162461bcd60e51b815260206004820152601960248201527f4475726174696f6e206d75737420626520706f736974697665000000000000006044820152fd5b9192849360409592845260208401528483013701015f815290565b1561253257565b608460405162461bcd60e51b8152602060048201526024808201527f4475706c6963617465207265636f7264696e672061742074686973206c6f636160448201527f74696f6e000000000000000000000000000000000000000000000000000000006064820152fd5b92919267ffffffffffffffff821161102d57604051916125c5601f8201601f19166020018461104e565b8294818452818301116104df578281602093845f960137010152565b919091825167ffffffffffffffff811161102d5761260381611daf8454610fc5565b6020601f821160011461263d578190611de49394955f926126325750508160011b915f199060031b1c19161790565b015190505f80611dd0565b601f19821690612650845f5260205f2090565b915f5b8181106126895750958360019596971061267157505050811b019055565b01515f1960f88460031b161c191690555f8080611e1d565b9192602060018192868b015181550194019201612653565b600660c061043d9380518455600184016001600160a01b036020830151167fffffffffffffffffffffffff00000000000000000000000000000000000000008254161790556126f76040820151600286016125e1565b606081015160038501556080810151600485015560a081015160058501550151151591019060ff801983541691151516179055565b92919261273882611614565b93612746604051958661104e565b602085848152019260051b8201918183116104df5780935b83851061276c575050505050565b843567ffffffffffffffff81116104df57820183601f820112156104df5760209161279d858385809535910161259b565b81520194019361275e565b9060208151916127b88385611e58565b01915f5260205f20915f905b8282106127d15750505050565b805180519067ffffffffffffffff821161102d576127f9826127f38854610fc5565b88611d4c565b602090601f831160011461283e579261282f836001959460209487965f926126325750508160011b915f199060031b1c19161790565b87555b019401910190926127c4565b90601f19831691612852885f5260205f2090565b925f5b818110612896575093602093600196938796938388951061287e575b505050811b018755612832565b01515f1960f88460031b161c191690555f8080612871565b92936020600181928786015181550195019301612855565b906128b881610320565b60ff80198354169116179055565b906128d081610320565b61ff0082549160081b169061ff001916179055565b9190805192835167ffffffffffffffff811161102d5761290981611daf8454610fc5565b6020601f82116001146129c457916129408260069360e09561043d98995f926126325750508160011b915f199060031b1c19161790565b81555b6129546020850151600183016125e1565b6129656040850151600283016127a8565b60608401516003820155612989608085015161298081610320565b600483016128ae565b61299a60a0850151600583016125e1565b01916129b360c08201516129ad8161033c565b84611ffc565b0151906129bf82610320565b6128c6565b601f198216956129d7845f5260205f2090565b965f5b818110612a1e57509261043d969760e095936001938360069710612a06575b505050811b018155612943565b01515f1960f88460031b161c191690555f80806129f9565b838301518955600190980197602093840193016129da565b80546801000000000000000081101561102d57612a58916001820181556113aa565b819291549060031b91821b915f19901b1916179055565b90918060409360208452816020850152848401375f828201840152601f01601f1916010190565b335f9081527f7d7ffb7a348e1c6a02869081a26547b49160dd3df72d1d75a570eb9b698292ec602052604090205460ff1615612ace57565b63e2517d3f60e01b5f52336004527fa49807205ce4d355092ef5a8a18f56e8913cf4a201fbe287825b095693c2177560245260445ffd5b805f525f60205260ff612b2c3360405f20906001600160a01b03165f5260205260405f2090565b541615612b365750565b63e2517d3f60e01b5f523360045260245260445ffd5b805f525f60205260ff612b738360405f20906001600160a01b03165f5260205260405f2090565b5416612bde57805f525f602052612b9e8260405f20906001600160a01b03165f5260205260405f2090565b805460ff1916600117905533916001600160a01b0316907f2f8788117e7eff1d82e926ec794901d17c78024a50270940304540a733656f0d5f80a4600190565b50505f90565b805f525f60205260ff612c0b8360405f20906001600160a01b03165f5260205260405f2090565b541615612bde57805f525f602052612c378260405f20906001600160a01b03165f5260205260405f2090565b805460ff1916905533916001600160a01b0316907ff6391f5c32d9c69d2a47ea670b442974b53935d1edc7fd64eb21e047a839171b5f80a4600190565b60ff60025416612c8057565b7fd93c0665000000000000000000000000000000000000000000000000000000005f5260045ffd5b600260015414612cb9576002600155565b7f3ee5aeb5000000000000000000000000000000000000000000000000000000005f5260045ffdfea264697066735822122059e23aab0eecda491b3b617ca6aa2630e09c58eb1fc4e4c3b2c71849ad2f9dc264736f6c634300081e00332f8788117e7eff1d82e926ec794901d17c78024a50270940304540a733656f0d7d7ffb7a348e1c6a02869081a26547b49160dd3df72d1d75a570eb9b698292ecf179aafcc4ff8137fca1ef3b9ec4d165f87016ba123e7973fba770bc55e240e3ad3228b676f7d3cd4284a5443f17f1962b36e491b30a40b2405849e597ba5fb5","linkReferences":{}},"methodIdentifiers":{"ADMIN_ROLE()":"75b238fc","DEFAULT_ADMIN_ROLE()":"a217fddf","MAX_DESCRIPTION_LENGTH()":"9201ea0a","MAX_EQUIPMENT_LENGTH()":"648fe35a","MAX_TAGS()":"cce67226","MAX_TITLE_LENGTH()":"2ef9a160","MIN_RECORDING_INTERVAL()":"51b99c98","MODERATOR_ROLE()":"797669c9","addRecording(string,string,string,int256,int256,string[],uint256,uint8,string,uint8)":"6a8a5b2c","getRecording(uint256)":"00ad1f54","getRecordingCore(uint256)":"3ee8684b","getRecordingMetadata(uint256)":"ee5a7ac4","getRecordingStats(uint256)":"a990a4f9","getRecordingsByLocation(int256,int256,int256,int256,uint256,uint256)":"27ec4f68","getRecordingsByStatus(uint8,uint256,uint256)":"2fb6d184","getRoleAdmin(bytes32)":"248a9ca3","getTotalRecordings()":"c37e73a7","getUserRecordings(address)":"04460354","grantRole(bytes32,address)":"2f2ff15d","hasRole(bytes32,address)":"91d14854","isLocationUsed(int256,int256,string)":"c7caea9e","locationHashes(bytes32)":"5f52d2f4","pause()":"8456cb59","paused()":"5c975abb","recordingCore(uint256)":"b8453a01","recordingMetadata(uint256)":"cc021797","recordingStats(uint256)":"a1bd2bdf","renounceRole(bytes32,address)":"36568abe","revokeRole(bytes32,address)":"d547741f","supportsInterface(bytes4)":"01ffc9a7","unpause()":"3f4ba83a","updateRecordingMetadata(uint256,string,string,string[],string,uint8)":"572df5f0","userLastRecordingTime(address)":"7dffe8f2","userRecordings(address,uint256)":"da41942a"},"id":33}