{"abi":[{"type":"constructor","inputs":[],"stateMutability":"nonpayable"},{"type":"function","name":"ADMIN_ROLE","inputs":[],"outputs":[{"name":"","type":"bytes32","internalType":"bytes32"}],"stateMutability":"view"},{"type":"function","name":"DEFAULT_ADMIN_ROLE","inputs":[],"outputs":[{"name":"","type":"bytes32","internalType":"bytes32"}],"stateMutability":"view"},{"type":"function","name":"MODERATOR_ROLE","inputs":[],"outputs":[{"name":"","type":"bytes32","internalType":"bytes32"}],"stateMutability":"view"},{"type":"function","name":"deactivateUser","inputs":[{"name":"_user","type":"address","internalType":"address"}],"outputs":[],"stateMutability":"nonpayable"},{"type":"function","name":"getRoleAdmin","inputs":[{"name":"role","type":"bytes32","internalType":"bytes32"}],"outputs":[{"name":"","type":"bytes32","internalType":"bytes32"}],"stateMutability":"view"},{"type":"function","name":"getTotalUsers","inputs":[],"outputs":[{"name":"","type":"uint256","internalType":"uint256"}],"stateMutability":"view"},{"type":"function","name":"getUser","inputs":[{"name":"_userAddress","type":"address","internalType":"address"}],"outputs":[{"name":"","type":"tuple","internalType":"struct San2SticMap.User","components":[{"name":"id","type":"uint256","internalType":"uint256"},{"name":"walletAddress","type":"address","internalType":"address"},{"name":"username","type":"string","internalType":"string"},{"name":"totalRecordings","type":"uint256","internalType":"uint256"},{"name":"totalVotes","type":"uint256","internalType":"uint256"},{"name":"reputation","type":"uint256","internalType":"uint256"},{"name":"isActive","type":"bool","internalType":"bool"},{"name":"registrationTimestamp","type":"uint256","internalType":"uint256"}]}],"stateMutability":"view"},{"type":"function","name":"grantModeratorRole","inputs":[{"name":"_moderator","type":"address","internalType":"address"}],"outputs":[],"stateMutability":"nonpayable"},{"type":"function","name":"grantRole","inputs":[{"name":"role","type":"bytes32","internalType":"bytes32"},{"name":"account","type":"address","internalType":"address"}],"outputs":[],"stateMutability":"nonpayable"},{"type":"function","name":"hasRole","inputs":[{"name":"role","type":"bytes32","internalType":"bytes32"},{"name":"account","type":"address","internalType":"address"}],"outputs":[{"name":"","type":"bool","internalType":"bool"}],"stateMutability":"view"},{"type":"function","name":"isUserRegistered","inputs":[{"name":"_userAddress","type":"address","internalType":"address"}],"outputs":[{"name":"","type":"bool","internalType":"bool"}],"stateMutability":"view"},{"type":"function","name":"pause","inputs":[],"outputs":[],"stateMutability":"nonpayable"},{"type":"function","name":"paused","inputs":[],"outputs":[{"name":"","type":"bool","internalType":"bool"}],"stateMutability":"view"},{"type":"function","name":"reactivateUser","inputs":[{"name":"_user","type":"address","internalType":"address"}],"outputs":[],"stateMutability":"nonpayable"},{"type":"function","name":"registerUser","inputs":[{"name":"_username","type":"string","internalType":"string"}],"outputs":[],"stateMutability":"nonpayable"},{"type":"function","name":"registeredUsers","inputs":[{"name":"","type":"address","internalType":"address"}],"outputs":[{"name":"","type":"bool","internalType":"bool"}],"stateMutability":"view"},{"type":"function","name":"renounceRole","inputs":[{"name":"role","type":"bytes32","internalType":"bytes32"},{"name":"callerConfirmation","type":"address","internalType":"address"}],"outputs":[],"stateMutability":"nonpayable"},{"type":"function","name":"revokeModeratorRole","inputs":[{"name":"_moderator","type":"address","internalType":"address"}],"outputs":[],"stateMutability":"nonpayable"},{"type":"function","name":"revokeRole","inputs":[{"name":"role","type":"bytes32","internalType":"bytes32"},{"name":"account","type":"address","internalType":"address"}],"outputs":[],"stateMutability":"nonpayable"},{"type":"function","name":"supportsInterface","inputs":[{"name":"interfaceId","type":"bytes4","internalType":"bytes4"}],"outputs":[{"name":"","type":"bool","internalType":"bool"}],"stateMutability":"view"},{"type":"function","name":"unpause","inputs":[],"outputs":[],"stateMutability":"nonpayable"},{"type":"function","name":"updateUserReputation","inputs":[{"name":"_user","type":"address","internalType":"address"},{"name":"_newReputation","type":"uint256","internalType":"uint256"}],"outputs":[],"stateMutability":"nonpayable"},{"type":"function","name":"users","inputs":[{"name":"","type":"address","internalType":"address"}],"outputs":[{"name":"id","type":"uint256","internalType":"uint256"},{"name":"walletAddress","type":"address","internalType":"address"},{"name":"username","type":"string","internalType":"string"},{"name":"totalRecordings","type":"uint256","internalType":"uint256"},{"name":"totalVotes","type":"uint256","internalType":"uint256"},{"name":"reputation","type":"uint256","internalType":"uint256"},{"name":"isActive","type":"bool","internalType":"bool"},{"name":"registrationTimestamp","type":"uint256","internalType":"uint256"}],"stateMutability":"view"},{"type":"event","name":"Paused","inputs":[{"name":"account","type":"address","indexed":false,"internalType":"address"}],"anonymous":false},{"type":"event","name":"RoleAdminChanged","inputs":[{"name":"role","type":"bytes32","indexed":true,"internalType":"bytes32"},{"name":"previousAdminRole","type":"bytes32","indexed":true,"internalType":"bytes32"},{"name":"newAdminRole","type":"bytes32","indexed":true,"internalType":"bytes32"}],"anonymous":false},{"type":"event","name":"RoleGranted","inputs":[{"name":"role","type":"bytes32","indexed":true,"internalType":"bytes32"},{"name":"account","type":"address","indexed":true,"internalType":"address"},{"name":"sender","type":"address","indexed":true,"internalType":"address"}],"anonymous":false},{"type":"event","name":"RoleRevoked","inputs":[{"name":"role","type":"bytes32","indexed":true,"internalType":"bytes32"},{"name":"account","type":"address","indexed":true,"internalType":"address"},{"name":"sender","type":"address","indexed":true,"internalType":"address"}],"anonymous":false},{"type":"event","name":"Unpaused","inputs":[{"name":"account","type":"address","indexed":false,"internalType":"address"}],"anonymous":false},{"type":"event","name":"UserRegistered","inputs":[{"name":"user","type":"address","indexed":true,"internalType":"address"},{"name":"userId","type":"uint256","indexed":false,"internalType":"uint256"},{"name":"username","type":"string","indexed":false,"internalType":"string"}],"anonymous":false},{"type":"event","name":"UserReputationUpdated","inputs":[{"name":"user","type":"address","indexed":true,"internalType":"address"},{"name":"newReputation","type":"uint256","indexed":false,"internalType":"uint256"}],"anonymous":false},{"type":"error","name":"AccessControlBadConfirmation","inputs":[]},{"type":"error","name":"AccessControlUnauthorizedAccount","inputs":[{"name":"account","type":"address","internalType":"address"},{"name":"neededRole","type":"bytes32","internalType":"bytes32"}]},{"type":"error","name":"EnforcedPause","inputs":[]},{"type":"error","name":"ExpectedPause","inputs":[]},{"type":"error","name":"ReentrancyGuardReentrantCall","inputs":[]}],"bytecode":{"object":"0x60806040523461003a57600180556100163361003e565b50610020336100b4565b5061002a33610147565b5060405161130190816101db8239f35b5f80fd5b6001600160a01b0381165f9081525f51602061153c5f395f51905f52602052604090205460ff166100af576001600160a01b03165f8181525f51602061153c5f395f51905f5260205260408120805460ff191660011790553391905f5160206114dc5f395f51905f528180a4600190565b505f90565b6001600160a01b0381165f9081525f5160206114fc5f395f51905f52602052604090205460ff166100af576001600160a01b03165f8181525f5160206114fc5f395f51905f5260205260408120805460ff191660011790553391907fa49807205ce4d355092ef5a8a18f56e8913cf4a201fbe287825b095693c21775905f5160206114dc5f395f51905f529080a4600190565b6001600160a01b0381165f9081525f51602061151c5f395f51905f52602052604090205460ff166100af576001600160a01b03165f8181525f51602061151c5f395f51905f5260205260408120805460ff191660011790553391907f71f3d55856e4058ed06ee057d79ada615f65cdf5f9ee88181b914225088f834f905f5160206114dc5f395f51905f529080a460019056fe6080806040526004361015610012575f80fd5b5f3560e01c90816301ffc9a714610ced575080630e50cee514610cb0578063163f752214610cb05780631a47767b14610c4c578063248a9ca314610c1a5780632f2ff15d14610bdd57806336568abe14610b805780633f4ba83a14610b0157806356eabb9c14610a105780635c975abb146109ee5780636f77926b14610897578063704f1b94146104b957806375b238fc1461047f578063797669c91461044557806381a29457146103de5780638456cb591461038557806391d148541461033c57806392b908b2146102c05780639be572f6146102a3578063a217fddf14610289578063a87430ba146101dd578063aa232dc2146101615763d547741f14610119575f80fd5b3461015d57604036600319011261015d5761015b600435610138610da1565b90610156610151825f525f602052600160405f20015490565b610fac565b611248565b005b5f80fd5b3461015d57602036600319011261015d5761015b61017d610d8b565b610185610f3d565b7f71f3d55856e4058ed06ee057d79ada615f65cdf5f9ee88181b914225088f834f5f9081526020527ff179aafcc4ff8137fca1ef3b9ec4d165f87016ba123e7973fba770bc55e240e4546101d890610fac565b611020565b3461015d57602036600319011261015d576001600160a01b036101fe610d8b565b165f52600460205260405f2080546001600160a01b036001830154169161022760028201610e52565b6003820154916004810154600582015490610269600760ff60068601541694015494604051988998895260208901526101006040890152610100880190610db7565b946060870152608086015260a0850152151560c084015260e08301520390f35b3461015d575f36600319011261015d5760206040515f8152f35b3461015d575f36600319011261015d576020600354604051908152f35b3461015d57602036600319011261015d5761015b6102dc610d8b565b6102e4610f3d565b7f71f3d55856e4058ed06ee057d79ada615f65cdf5f9ee88181b914225088f834f5f9081526020527ff179aafcc4ff8137fca1ef3b9ec4d165f87016ba123e7973fba770bc55e240e45461033790610fac565b61117e565b3461015d57604036600319011261015d57610355610da1565b6004355f525f6020526001600160a01b0360405f2091165f52602052602060ff60405f2054166040519015158152f35b3461015d575f36600319011261015d5761039d610f3d565b6103a5610fec565b600160ff1960025416176002557f62e78cea01bee320cd4e420270b5ea74000d11b0c9f74754ebdbfc544b05a2586020604051338152a1005b3461015d57602036600319011261015d576001600160a01b036103ff610d8b565b610407610f3d565b61040f610fec565b16805f52600560205261042860ff60405f205416610ef2565b5f908152600460205260409020600601805460ff19166001179055005b3461015d575f36600319011261015d5760206040517f71f3d55856e4058ed06ee057d79ada615f65cdf5f9ee88181b914225088f834f8152f35b3461015d575f36600319011261015d5760206040517fa49807205ce4d355092ef5a8a18f56e8913cf4a201fbe287825b095693c217758152f35b3461015d57602036600319011261015d5760043567ffffffffffffffff811161015d573660238201121561015d5780600401359067ffffffffffffffff821161015d576024810190602483369201011161015d57610515610fec565b335f52600560205260ff60405f2054166108535781151580610848575b15610804576003545f1981146107f05760010190816003556040519161055783610e13565b82526020820192338452601f19601f820116926040519461057b6020860187610e30565b828652828460208801375f602084880101526040820195865260608201955f875260808301965f885260a08401906064825260c08501926001845260e0860194428652335f52600460205260405f20965187556001600160a01b03600188019151167fffffffffffffffffffffffff000000000000000000000000000000000000000082541617905560028601905180519067ffffffffffffffff82116107dc576106268354610ddb565b601f8111610797575b50602090601f83116001146107055793606098969383600797947fbc6cd93a5a69dae46517fc4b81c3c705973b0fabb816aae5d0ff7a077c4d5d189e9f945f9d9b988e926106fa575b50508160011b918d199060031b1c19161790555b516003870155516004860155516005850155600684019051151560ff8019835416911617905551910155338352600560205260408320600160ff19825416179055806003549460405195865260406020870152816040870152838601378301015260608133948101030190a2005b015190505f80610678565b90601f19831691845f52815f20925f5b81811061077f5750847fbc6cd93a5a69dae46517fc4b81c3c705973b0fabb816aae5d0ff7a077c4d5d189e9f945f9d9b989460609d9b989460079b9860019510610767575b505050811b01905561068c565b01518e1960f88460031b161c191690555f808061075a565b92936020600181928786015181550195019301610715565b835f5260205f20601f840160051c810191602085106107d2575b601f0160051c01905b8181106107c7575061062f565b5f81556001016107ba565b90915081906107b1565b634e487b7160e01b5f52604160045260245ffd5b634e487b7160e01b5f52601160045260245ffd5b606460405162461bcd60e51b815260206004820152601760248201527f496e76616c696420757365726e616d65206c656e6774680000000000000000006044820152fd5b506020821115610532565b606460405162461bcd60e51b815260206004820152601760248201527f5573657220616c726561647920726567697374657265640000000000000000006044820152fd5b3461015d57602036600319011261015d576001600160a01b036108b8610d8b565b5f60e06040516108c781610e13565b828152826020820152606060408201528260608201528260808201528260a08201528260c0820152015216805f52600560205261090a60ff60405f205416610ef2565b5f52600460205260405f2060405161092181610e13565b815481526001600160a01b03600183015416916020820192835261094760028201610e52565b604083019081526003820154916060840192835260048101546080850190815260058201549060a086019182526109c8600760ff6006860154169460c08901951515865201549460e088019586526001600160a01b03604051998a9960208b525160208b015251166040890152516101006060890152610120880190610db7565b945160808701525160a08601525160c085015251151560e0840152516101008301520390f35b3461015d575f36600319011261015d57602060ff600254166040519015158152f35b3461015d57604036600319011261015d57610a29610d8b565b335f9081527ff179aafcc4ff8137fca1ef3b9ec4d165f87016ba123e7973fba770bc55e240e36020526040902054602435919060ff1615610aca5760206001600160a01b037f2ed0252b8901e5ebb800f47a9b16756f232137a30e26b272dae6b2a2baf4e00292610a98610fec565b1692835f5260058252610ab160ff60405f205416610ef2565b835f526004825280600560405f200155604051908152a2005b63e2517d3f60e01b5f52336004527f71f3d55856e4058ed06ee057d79ada615f65cdf5f9ee88181b914225088f834f60245260445ffd5b3461015d575f36600319011261015d57610b19610f3d565b60025460ff811615610b585760ff19166002557f5db9ee0a495bf2e6ff9c91a7834c1ba4fdd244a5e8aa4e537bd38aeae4b073aa6020604051338152a1005b7f8dfc202b000000000000000000000000000000000000000000000000000000005f5260045ffd5b3461015d57604036600319011261015d57610b99610da1565b336001600160a01b03821603610bb55761015b90600435611248565b7f6697b232000000000000000000000000000000000000000000000000000000005f5260045ffd5b3461015d57604036600319011261015d5761015b600435610bfc610da1565b90610c15610151825f525f602052600160405f20015490565b6110f1565b3461015d57602036600319011261015d576020610c446004355f525f602052600160405f20015490565b604051908152f35b3461015d57602036600319011261015d576001600160a01b03610c6d610d8b565b610c75610f3d565b610c7d610fec565b16805f526005602052610c9660ff60405f205416610ef2565b5f908152600460205260409020600601805460ff19169055005b3461015d57602036600319011261015d576001600160a01b03610cd1610d8b565b165f526005602052602060ff60405f2054166040519015158152f35b3461015d57602036600319011261015d57600435907fffffffff00000000000000000000000000000000000000000000000000000000821680920361015d57817f7965db0b0000000000000000000000000000000000000000000000000000000060209314908115610d61575b5015158152f35b7f01ffc9a70000000000000000000000000000000000000000000000000000000091501483610d5a565b600435906001600160a01b038216820361015d57565b602435906001600160a01b038216820361015d57565b805180835260209291819084018484015e5f828201840152601f01601f1916010190565b90600182811c92168015610e09575b6020831014610df557565b634e487b7160e01b5f52602260045260245ffd5b91607f1691610dea565b610100810190811067ffffffffffffffff8211176107dc57604052565b90601f8019910116810190811067ffffffffffffffff8211176107dc57604052565b9060405191825f825492610e6584610ddb565b8084529360018116908115610ed05750600114610e8c575b50610e8a92500383610e30565b565b90505f9291925260205f20905f915b818310610eb4575050906020610e8a928201015f610e7d565b6020919350806001915483858901015201910190918492610e9b565b905060209250610e8a94915060ff191682840152151560051b8201015f610e7d565b15610ef957565b606460405162461bcd60e51b815260206004820152601360248201527f55736572206e6f742072656769737465726564000000000000000000000000006044820152fd5b335f9081527f7d7ffb7a348e1c6a02869081a26547b49160dd3df72d1d75a570eb9b698292ec602052604090205460ff1615610f7557565b63e2517d3f60e01b5f52336004527fa49807205ce4d355092ef5a8a18f56e8913cf4a201fbe287825b095693c2177560245260445ffd5b805f525f60205260405f206001600160a01b0333165f5260205260ff60405f20541615610fd65750565b63e2517d3f60e01b5f523360045260245260445ffd5b60ff60025416610ff857565b7fd93c0665000000000000000000000000000000000000000000000000000000005f5260045ffd5b6001600160a01b0381165f9081527ff179aafcc4ff8137fca1ef3b9ec4d165f87016ba123e7973fba770bc55e240e3602052604090205460ff166110ec576001600160a01b03165f8181527ff179aafcc4ff8137fca1ef3b9ec4d165f87016ba123e7973fba770bc55e240e360205260408120805460ff191660011790553391907f71f3d55856e4058ed06ee057d79ada615f65cdf5f9ee88181b914225088f834f907f2f8788117e7eff1d82e926ec794901d17c78024a50270940304540a733656f0d9080a4600190565b505f90565b805f525f60205260405f206001600160a01b0383165f5260205260ff60405f205416155f1461117857805f525f60205260405f206001600160a01b0383165f5260205260405f20600160ff198254161790556001600160a01b03339216907f2f8788117e7eff1d82e926ec794901d17c78024a50270940304540a733656f0d5f80a4600190565b50505f90565b6001600160a01b0381165f9081527ff179aafcc4ff8137fca1ef3b9ec4d165f87016ba123e7973fba770bc55e240e3602052604090205460ff16156110ec576001600160a01b03165f8181527ff179aafcc4ff8137fca1ef3b9ec4d165f87016ba123e7973fba770bc55e240e360205260408120805460ff191690553391907f71f3d55856e4058ed06ee057d79ada615f65cdf5f9ee88181b914225088f834f907ff6391f5c32d9c69d2a47ea670b442974b53935d1edc7fd64eb21e047a839171b9080a4600190565b805f525f60205260405f206001600160a01b0383165f5260205260ff60405f2054165f1461117857805f525f60205260405f206001600160a01b0383165f5260205260405f2060ff1981541690556001600160a01b03339216907ff6391f5c32d9c69d2a47ea670b442974b53935d1edc7fd64eb21e047a839171b5f80a460019056fea2646970667358221220ef42def4ecc82383f7f736f1b5a0410ab11a070c2fda80a680ea507217a38a2d64736f6c634300081e00332f8788117e7eff1d82e926ec794901d17c78024a50270940304540a733656f0d7d7ffb7a348e1c6a02869081a26547b49160dd3df72d1d75a570eb9b698292ecf179aafcc4ff8137fca1ef3b9ec4d165f87016ba123e7973fba770bc55e240e3ad3228b676f7d3cd4284a5443f17f1962b36e491b30a40b2405849e597ba5fb5","linkReferences":{}},"methodIdentifiers":{"ADMIN_ROLE()":"75b238fc","DEFAULT_ADMIN_ROLE()":"a217fddf","MODERATOR_ROLE()":"797669c9","deactivateUser(address)":"1a47767b","getRoleAdmin(bytes32)":"248a9ca3","getTotalUsers()":"9be572f6","getUser(address)":"6f77926b","grantModeratorRole(address)":"aa232dc2","grantRole(bytes32,address)":"2f2ff15d","hasRole(bytes32,address)":"91d14854","isUserRegistered(address)":"163f7522","pause()":"8456cb59","paused()":"5c975abb","reactivateUser(address)":"81a29457","registerUser(string)":"704f1b94","registeredUsers(address)":"0e50cee5","renounceRole(bytes32,address)":"36568abe","revokeModeratorRole(address)":"92b908b2","revokeRole(bytes32,address)":"d547741f","supportsInterface(bytes4)":"01ffc9a7","unpause()":"3f4ba83a","updateUserReputation(address,uint256)":"56eabb9c","users(address)":"a87430ba"},"id":34}