{"abi":[{"type":"constructor","inputs":[],"stateMutability":"nonpayable"},{"type":"function","name":"ADMIN_ROLE","inputs":[],"outputs":[{"name":"","type":"bytes32","internalType":"bytes32"}],"stateMutability":"view"},{"type":"function","name":"DEFAULT_ADMIN_ROLE","inputs":[],"outputs":[{"name":"","type":"bytes32","internalType":"bytes32"}],"stateMutability":"view"},{"type":"function","name":"MAX_RATING","inputs":[],"outputs":[{"name":"","type":"uint256","internalType":"uint256"}],"stateMutability":"view"},{"type":"function","name":"MIN_RATING","inputs":[],"outputs":[{"name":"","type":"uint256","internalType":"uint256"}],"stateMutability":"view"},{"type":"function","name":"MIN_REPUTATION_TO_MODERATE","inputs":[],"outputs":[{"name":"","type":"uint256","internalType":"uint256"}],"stateMutability":"view"},{"type":"function","name":"MODERATOR_ROLE","inputs":[],"outputs":[{"name":"","type":"bytes32","internalType":"bytes32"}],"stateMutability":"view"},{"type":"function","name":"REPUTATION_DOWNVOTE_PENALTY","inputs":[],"outputs":[{"name":"","type":"uint256","internalType":"uint256"}],"stateMutability":"view"},{"type":"function","name":"REPUTATION_UPVOTE_REWARD","inputs":[],"outputs":[{"name":"","type":"uint256","internalType":"uint256"}],"stateMutability":"view"},{"type":"function","name":"batchModerateRecordings","inputs":[{"name":"_recordingIds","type":"uint256[]","internalType":"uint256[]"},{"name":"_statuses","type":"uint8[]","internalType":"enum VotingSystem.ModerationStatus[]"},{"name":"_reasons","type":"string[]","internalType":"string[]"}],"outputs":[],"stateMutability":"nonpayable"},{"type":"function","name":"getRecordingModerationHistory","inputs":[{"name":"_recordingId","type":"uint256","internalType":"uint256"}],"outputs":[{"name":"","type":"tuple[]","internalType":"struct VotingSystem.ModerationAction[]","components":[{"name":"recordingId","type":"uint256","internalType":"uint256"},{"name":"moderator","type":"address","internalType":"address"},{"name":"action","type":"uint8","internalType":"enum VotingSystem.ModerationStatus"},{"name":"reason","type":"string","internalType":"string"},{"name":"timestamp","type":"uint256","internalType":"uint256"}]}],"stateMutability":"view"},{"type":"function","name":"getRecordingRating","inputs":[{"name":"_recordingId","type":"uint256","internalType":"uint256"}],"outputs":[{"name":"averageRating","type":"uint256","internalType":"uint256"},{"name":"ratingCount","type":"uint256","internalType":"uint256"}],"stateMutability":"view"},{"type":"function","name":"getRecordingVotes","inputs":[{"name":"_recordingId","type":"uint256","internalType":"uint256"}],"outputs":[{"name":"upvotes","type":"uint256","internalType":"uint256"},{"name":"downvotes","type":"uint256","internalType":"uint256"}],"stateMutability":"view"},{"type":"function","name":"getRoleAdmin","inputs":[{"name":"role","type":"bytes32","internalType":"bytes32"}],"outputs":[{"name":"","type":"bytes32","internalType":"bytes32"}],"stateMutability":"view"},{"type":"function","name":"getTotalModerationActions","inputs":[],"outputs":[{"name":"","type":"uint256","internalType":"uint256"}],"stateMutability":"view"},{"type":"function","name":"getTotalRatings","inputs":[],"outputs":[{"name":"","type":"uint256","internalType":"uint256"}],"stateMutability":"view"},{"type":"function","name":"getTotalVotes","inputs":[],"outputs":[{"name":"","type":"uint256","internalType":"uint256"}],"stateMutability":"view"},{"type":"function","name":"getUserVotingHistory","inputs":[{"name":"_user","type":"address","internalType":"address"},{"name":"_offset","type":"uint256","internalType":"uint256"},{"name":"_limit","type":"uint256","internalType":"uint256"}],"outputs":[{"name":"","type":"tuple[]","internalType":"struct VotingSystem.Vote[]","components":[{"name":"voter","type":"address","internalType":"address"},{"name":"recordingId","type":"uint256","internalType":"uint256"},{"name":"isUpvote","type":"bool","internalType":"bool"},{"name":"timestamp","type":"uint256","internalType":"uint256"}]}],"stateMutability":"view"},{"type":"function","name":"grantRole","inputs":[{"name":"role","type":"bytes32","internalType":"bytes32"},{"name":"account","type":"address","internalType":"address"}],"outputs":[],"stateMutability":"nonpayable"},{"type":"function","name":"hasRated","inputs":[{"name":"","type":"uint256","internalType":"uint256"},{"name":"","type":"address","internalType":"address"}],"outputs":[{"name":"","type":"bool","internalType":"bool"}],"stateMutability":"view"},{"type":"function","name":"hasRole","inputs":[{"name":"role","type":"bytes32","internalType":"bytes32"},{"name":"account","type":"address","internalType":"address"}],"outputs":[{"name":"","type":"bool","internalType":"bool"}],"stateMutability":"view"},{"type":"function","name":"hasVoted","inputs":[{"name":"","type":"uint256","internalType":"uint256"},{"name":"","type":"address","internalType":"address"}],"outputs":[{"name":"","type":"bool","internalType":"bool"}],"stateMutability":"view"},{"type":"function","name":"moderateRecording","inputs":[{"name":"_recordingId","type":"uint256","internalType":"uint256"},{"name":"_status","type":"uint8","internalType":"enum VotingSystem.ModerationStatus"},{"name":"_reason","type":"string","internalType":"string"}],"outputs":[],"stateMutability":"nonpayable"},{"type":"function","name":"moderationActions","inputs":[{"name":"","type":"uint256","internalType":"uint256"}],"outputs":[{"name":"recordingId","type":"uint256","internalType":"uint256"},{"name":"moderator","type":"address","internalType":"address"},{"name":"action","type":"uint8","internalType":"enum VotingSystem.ModerationStatus"},{"name":"reason","type":"string","internalType":"string"},{"name":"timestamp","type":"uint256","internalType":"uint256"}],"stateMutability":"view"},{"type":"function","name":"pause","inputs":[],"outputs":[],"stateMutability":"nonpayable"},{"type":"function","name":"paused","inputs":[],"outputs":[{"name":"","type":"bool","internalType":"bool"}],"stateMutability":"view"},{"type":"function","name":"proposeModeration","inputs":[{"name":"_recordingId","type":"uint256","internalType":"uint256"},{"name":"_proposedStatus","type":"uint8","internalType":"enum VotingSystem.ModerationStatus"},{"name":"_reason","type":"string","internalType":"string"}],"outputs":[],"stateMutability":"nonpayable"},{"type":"function","name":"rateRecording","inputs":[{"name":"_recordingId","type":"uint256","internalType":"uint256"},{"name":"_score","type":"uint8","internalType":"uint8"},{"name":"_recordingCreator","type":"address","internalType":"address"}],"outputs":[],"stateMutability":"nonpayable"},{"type":"function","name":"ratings","inputs":[{"name":"","type":"uint256","internalType":"uint256"}],"outputs":[{"name":"rater","type":"address","internalType":"address"},{"name":"recordingId","type":"uint256","internalType":"uint256"},{"name":"score","type":"uint8","internalType":"uint8"},{"name":"timestamp","type":"uint256","internalType":"uint256"}],"stateMutability":"view"},{"type":"function","name":"recordingDownvotes","inputs":[{"name":"","type":"uint256","internalType":"uint256"}],"outputs":[{"name":"","type":"uint256","internalType":"uint256"}],"stateMutability":"view"},{"type":"function","name":"recordingRatingCount","inputs":[{"name":"","type":"uint256","internalType":"uint256"}],"outputs":[{"name":"","type":"uint256","internalType":"uint256"}],"stateMutability":"view"},{"type":"function","name":"recordingStatus","inputs":[{"name":"","type":"uint256","internalType":"uint256"}],"outputs":[{"name":"","type":"uint8","internalType":"enum VotingSystem.ModerationStatus"}],"stateMutability":"view"},{"type":"function","name":"recordingTotalRating","inputs":[{"name":"","type":"uint256","internalType":"uint256"}],"outputs":[{"name":"","type":"uint256","internalType":"uint256"}],"stateMutability":"view"},{"type":"function","name":"recordingUpvotes","inputs":[{"name":"","type":"uint256","internalType":"uint256"}],"outputs":[{"name":"","type":"uint256","internalType":"uint256"}],"stateMutability":"view"},{"type":"function","name":"renounceRole","inputs":[{"name":"role","type":"bytes32","internalType":"bytes32"},{"name":"callerConfirmation","type":"address","internalType":"address"}],"outputs":[],"stateMutability":"nonpayable"},{"type":"function","name":"revokeRole","inputs":[{"name":"role","type":"bytes32","internalType":"bytes32"},{"name":"account","type":"address","internalType":"address"}],"outputs":[],"stateMutability":"nonpayable"},{"type":"function","name":"setUserReputation","inputs":[{"name":"_user","type":"address","internalType":"address"},{"name":"_reputation","type":"uint256","internalType":"uint256"}],"outputs":[],"stateMutability":"nonpayable"},{"type":"function","name":"supportsInterface","inputs":[{"name":"interfaceId","type":"bytes4","internalType":"bytes4"}],"outputs":[{"name":"","type":"bool","internalType":"bool"}],"stateMutability":"view"},{"type":"function","name":"unpause","inputs":[],"outputs":[],"stateMutability":"nonpayable"},{"type":"function","name":"userReputation","inputs":[{"name":"","type":"address","internalType":"address"}],"outputs":[{"name":"","type":"uint256","internalType":"uint256"}],"stateMutability":"view"},{"type":"function","name":"voteOnRecording","inputs":[{"name":"_recordingId","type":"uint256","internalType":"uint256"},{"name":"_isUpvote","type":"bool","internalType":"bool"},{"name":"_recordingCreator","type":"address","internalType":"address"}],"outputs":[],"stateMutability":"nonpayable"},{"type":"function","name":"votes","inputs":[{"name":"","type":"uint256","internalType":"uint256"}],"outputs":[{"name":"voter","type":"address","internalType":"address"},{"name":"recordingId","type":"uint256","internalType":"uint256"},{"name":"isUpvote","type":"bool","internalType":"bool"},{"name":"timestamp","type":"uint256","internalType":"uint256"}],"stateMutability":"view"},{"type":"event","name":"ModerationActionTaken","inputs":[{"name":"recordingId","type":"uint256","indexed":true,"internalType":"uint256"},{"name":"moderator","type":"address","indexed":true,"internalType":"address"},{"name":"action","type":"uint8","indexed":false,"internalType":"enum VotingSystem.ModerationStatus"},{"name":"reason","type":"string","indexed":false,"internalType":"string"}],"anonymous":false},{"type":"event","name":"Paused","inputs":[{"name":"account","type":"address","indexed":false,"internalType":"address"}],"anonymous":false},{"type":"event","name":"RecordingModerated","inputs":[{"name":"recordingId","type":"uint256","indexed":true,"internalType":"uint256"},{"name":"moderator","type":"address","indexed":true,"internalType":"address"},{"name":"status","type":"uint8","indexed":false,"internalType":"enum VotingSystem.ModerationStatus"}],"anonymous":false},{"type":"event","name":"RecordingRated","inputs":[{"name":"recordingId","type":"uint256","indexed":true,"internalType":"uint256"},{"name":"rater","type":"address","indexed":true,"internalType":"address"},{"name":"score","type":"uint8","indexed":false,"internalType":"uint8"}],"anonymous":false},{"type":"event","name":"RecordingVoted","inputs":[{"name":"recordingId","type":"uint256","indexed":true,"internalType":"uint256"},{"name":"voter","type":"address","indexed":true,"internalType":"address"},{"name":"isUpvote","type":"bool","indexed":false,"internalType":"bool"}],"anonymous":false},{"type":"event","name":"ReputationUpdated","inputs":[{"name":"user","type":"address","indexed":true,"internalType":"address"},{"name":"newReputation","type":"uint256","indexed":false,"internalType":"uint256"}],"anonymous":false},{"type":"event","name":"RoleAdminChanged","inputs":[{"name":"role","type":"bytes32","indexed":true,"internalType":"bytes32"},{"name":"previousAdminRole","type":"bytes32","indexed":true,"internalType":"bytes32"},{"name":"newAdminRole","type":"bytes32","indexed":true,"internalType":"bytes32"}],"anonymous":false},{"type":"event","name":"RoleGranted","inputs":[{"name":"role","type":"bytes32","indexed":true,"internalType":"bytes32"},{"name":"account","type":"address","indexed":true,"internalType":"address"},{"name":"sender","type":"address","indexed":true,"internalType":"address"}],"anonymous":false},{"type":"event","name":"RoleRevoked","inputs":[{"name":"role","type":"bytes32","indexed":true,"internalType":"bytes32"},{"name":"account","type":"address","indexed":true,"internalType":"address"},{"name":"sender","type":"address","indexed":true,"internalType":"address"}],"anonymous":false},{"type":"event","name":"Unpaused","inputs":[{"name":"account","type":"address","indexed":false,"internalType":"address"}],"anonymous":false},{"type":"error","name":"AccessControlBadConfirmation","inputs":[]},{"type":"error","name":"AccessControlUnauthorizedAccount","inputs":[{"name":"account","type":"address","internalType":"address"},{"name":"neededRole","type":"bytes32","internalType":"bytes32"}]},{"type":"error","name":"EnforcedPause","inputs":[]},{"type":"error","name":"ExpectedPause","inputs":[]},{"type":"error","name":"ReentrancyGuardReentrantCall","inputs":[]}],"bytecode":{"object":"0x60806040523461003a57600180556100163361003e565b50610020336100b4565b5061002a33610147565b5060405161241890816101db8239f35b5f80fd5b6001600160a01b0381165f9081525f5160206126535f395f51905f52602052604090205460ff166100af576001600160a01b03165f8181525f5160206126535f395f51905f5260205260408120805460ff191660011790553391905f5160206125f35f395f51905f528180a4600190565b505f90565b6001600160a01b0381165f9081525f5160206126135f395f51905f52602052604090205460ff166100af576001600160a01b03165f8181525f5160206126135f395f51905f5260205260408120805460ff191660011790553391907fa49807205ce4d355092ef5a8a18f56e8913cf4a201fbe287825b095693c21775905f5160206125f35f395f51905f529080a4600190565b6001600160a01b0381165f9081525f5160206126335f395f51905f52602052604090205460ff166100af576001600160a01b03165f8181525f5160206126335f395f51905f5260205260408120805460ff191660011790553391907f71f3d55856e4058ed06ee057d79ada615f65cdf5f9ee88181b914225088f834f905f5160206125f35f395f51905f529080a460019056fe6080806040526004361015610012575f80fd5b5f3560e01c90816301ffc9a714611635575080630b98aa2814611368578063248a9ca3146113365780632f2ff15d146112f957806336568abe1461129c5780633f4ba83a1461121d57806343859632146111d3578063580ce355146107045780635c975abb146111b15780635d30e84d146111505780635df81330146110ed5780636b9137b0146110c35780636e66fb471461105b57806375b238fc146110215780637645448614610fd7578063797669c914610f9d5780637c5fbbfa14610e885780638456cb5914610e2f57806391d1485414610de657806391ebc25a14610dbc57806394e113ea14610da15780639a0e7d6614610d845780639e4c18db14610d5a5780639e62f44214610cd0578063a217fddf14610cb6578063a76780af14610c9b578063aa4c175414610b24578063ad4b67f414610aea578063b5ff4cfa146108e0578063bb0e4ea214610704578063befc93f0146108b6578063cb3a8e5714610882578063d547741f1461083e578063d6a9ddd9146107a5578063db617dd414610788578063e223e3141461076b578063e482bb7a14610741578063e503bb0514610709578063f380826014610704578063f59afbe9146104d55763fa26165d146101df575f80fd5b346104d15760603660031901126104d1576004356024359060ff82168092036104d15761020a611730565b610215821515611c72565b61022a6001600160a01b038216331415611fce565b610232612182565b61023a6122c6565b6001831015806104c6575b1561048257815f52600460205260405f206001600160a01b0333165f5260205260ff60405f20541661043e57815f52600960205260ff60405f205416600481101561042a5760016102969114612019565b815f52600460205260405f206001600160a01b0333165f5260205260405f20600160ff19825416179055815f52600760205260405f208054908482018092116104165755815f52600860205260405f206102f08154611d37565b90556040516102fe8161187f565b3381526020810190838252604081018581526060820190428252600c54680100000000000000008110156104025780600161033c9201600c55611761565b9490946103ef576001600160a01b038060039551161673ffffffffffffffffffffffffffffffffffffffff1986541617855551600185015560ff6002850191511660ff198254161790555191015560048310155f146103d05761039e90612385565b6040519182527f417245495d99d0c80fcac3f192422c19e379af311790a06572eb2c354769d3b460203393a360018055005b60028311156103e0575b5061039e565b6103e9906122ff565b5f6103da565b634e487b7160e01b5f525f60045260245ffd5b634e487b7160e01b5f52604160045260245ffd5b634e487b7160e01b5f52601160045260245ffd5b634e487b7160e01b5f52602160045260245ffd5b606460405162461bcd60e51b815260206004820152601c60248201527f416c72656164792072617465642074686973207265636f7264696e67000000006044820152fd5b606460405162461bcd60e51b815260206004820152601e60248201527f526174696e67206d757374206265206265747765656e203120616e64203500006044820152fd5b506005831115610245565b5f80fd5b346104d15760603660031901126104d15760043560243590811515918281036104d157610500611730565b9061050c831515611c72565b6105216001600160a01b038316331415611fce565b610529612182565b6105316122c6565b825f52600360205260405f206001600160a01b0333165f5260205260ff60405f2054166106c057825f52600960205260ff60405f205416600481101561042a57600161057d9114612019565b825f52600360205260405f206001600160a01b0333165f5260205260405f20600160ff198254161790555f1461069a576105ce90825f52600560205260405f206105c78154611d37565b9055612385565b6040516105da8161187f565b3381526020810190828252604081018481526060820190428252600b5468010000000000000000811015610402578060016106189201600b55611791565b9490946103ef576001600160a01b038060039551161673ffffffffffffffffffffffffffffffffffffffff19865416178555516001850155600284019051151560ff80198354169116179055519101556040519182527f8c70ee3dedd78e0d3e10654de336c3331ae37c1416840c276d1e98de61ce93c260203393a360018055005b6106bb90825f52600660205260405f206106b48154611d37565b90556122ff565b6105ce565b606460405162461bcd60e51b815260206004820152601f60248201527f416c726561647920766f746564206f6e2074686973207265636f7264696e67006044820152fd5b611746565b346104d15760203660031901126104d1576001600160a01b0361072a61171a565b165f52600a602052602060405f2054604051908152f35b346104d15760203660031901126104d1576004355f526007602052602060405f2054604051908152f35b346104d1575f3660031901126104d1576020600c54604051908152f35b346104d1575f3660031901126104d1576020600d54604051908152f35b346104d15760603660031901126104d1576107ce6107c161171a565b6044359060243590611d71565b6040518091602082016020835281518091526020604084019201905f5b8181106107f9575050500390f35b9193509160206080600192606087516001600160a01b0381511683528481015185840152604081015115156040840152015160608201520194019101918493926107eb565b346104d15760403660031901126104d15761088060043561085d611704565b9061087b610876825f525f602052600160405f20015490565b612142565b612243565b005b346104d15760203660031901126104d1576004355f526009602052602060ff60405f2054166108b4604051809261195d565bf35b346104d15760203660031901126104d1576004355f526006602052602060405f2054604051908152f35b346104d15760203660031901126104d157600d545f90600435825b828110610abc575061090c83611d45565b9261091a604051948561189b565b808452610929601f1991611d45565b015f5b818110610a875750505f905f5b8381106109e957846040518091602082016020835281518091526040830190602060408260051b8601019301915f905b82821061097857505050500390f35b919360019193955060208091603f19898203018552875190815181526001600160a01b038383015116838201526109b76040830151604083019061195d565b6080806109d3606085015160a0606086015260a085019061196a565b9301519101529601920192018594939192610969565b816109f3826117ad565b505414610a03575b600101610939565b91610a7f600191610a13856117ad565b50600360405191610a2383611863565b80548352610a4c60ff878301546001600160a01b038116602087015260a01c16604085016119f8565b610a58600282016118bd565b606084015201546080820152610a6e8289611d5d565b52610a798188611d5d565b50611d37565b9290506109fb565b602090604051610a9681611863565b5f81525f838201525f60408201526060808201525f60808201528282880101520161092c565b81610ac6826117ad565b505414610ad6575b6001016108fb565b92610ae2600191611d37565b939050610ace565b346104d15760203660031901126104d1576040600435805f526005602052815f2054905f526006602052815f205482519182526020820152f35b346104d157610b32366117c9565b610b3f8493941515611c72565b610b47612182565b335f52600a602052606460405f205410610c3157600484101561042a578315610bed577f72062823a06ea00fb23882967e1c59809608db4a1ba99631509f13d9852a8a4191610b97821515611cbd565b610bd7604051610ba681611863565b858152336020820152610bbc87604083016119f8565b610bc7368585611a04565b6060820152426080820152611a4a565b610be8604051928392339784611c3e565b0390a3005b606460405162461bcd60e51b815260206004820152601d60248201527f43616e6e6f742070726f706f73652070656e64696e67207374617475730000006044820152fd5b608460405162461bcd60e51b815260206004820152602d60248201527f496e73756666696369656e742072657075746174696f6e20746f2070726f706f60448201527f7365206d6f6465726174696f6e000000000000000000000000000000000000006064820152fd5b346104d1575f3660031901126104d157602060405160648152f35b346104d1575f3660031901126104d15760206040515f8152f35b346104d15760203660031901126104d157600435600d548110156104d157610cf7906117ad565b508054600182015491610d506003610d11600284016118bd565b92015491610d3f60405195869586526001600160a01b038116602087015260ff604087019160a01c1661195d565b60a0606085015260a084019061196a565b9060808301520390f35b346104d15760203660031901126104d1576040610d78600435611d08565b82519182526020820152f35b346104d1575f3660031901126104d1576020600b54604051908152f35b346104d1575f3660031901126104d157602060405160058152f35b346104d15760203660031901126104d1576004355f526008602052602060405f2054604051908152f35b346104d15760403660031901126104d157610dff611704565b6004355f525f6020526001600160a01b0360405f2091165f52602052602060ff60405f2054166040519015158152f35b346104d1575f3660031901126104d157610e476120d3565b610e4f612182565b600160ff1960025416176002557f62e78cea01bee320cd4e420270b5ea74000d11b0c9f74754ebdbfc544b05a2586020604051338152a1005b346104d157610e96366117c9565b610ea1939293612064565b610eac831515611c72565b610eb4612182565b600484101561042a578315610f59577f72062823a06ea00fb23882967e1c59809608db4a1ba99631509f13d9852a8a4191610ef0821515611cbd565b835f526009602052610f058560405f2061199e565b610f14604051610ba681611863565b604051610f21818761195d565b847f07bc402fe6669632bc611aea05cb09d9263fc670551b0e324c00ac5b933e5fb060203393a3610be8604051928392339784611c3e565b606460405162461bcd60e51b815260206004820152601c60248201527f43616e6e6f74207365742073746174757320746f2070656e64696e67000000006044820152fd5b346104d1575f3660031901126104d15760206040517f71f3d55856e4058ed06ee057d79ada615f65cdf5f9ee88181b914225088f834f8152f35b346104d15760403660031901126104d157610ff0611704565b6004355f5260046020526001600160a01b0360405f2091165f52602052602060ff60405f2054166040519015158152f35b346104d1575f3660031901126104d15760206040517fa49807205ce4d355092ef5a8a18f56e8913cf4a201fbe287825b095693c217758152f35b346104d15760403660031901126104d15761107461171a565b7ffc577563f1b9a0461e24abef1e1fcc0d33d3d881f20b5df6dda59de4aae2c82160206001600160a01b03602435936110ab6120d3565b1692835f52600a82528060405f2055604051908152a2005b346104d15760203660031901126104d1576004355f526005602052602060405f2054604051908152f35b346104d15760203660031901126104d157600435600b548110156104d157611116608091611791565b506001600160a01b0381541690600181015490600360ff600283015416910154916040519384526020840152151560408301526060820152f35b346104d15760203660031901126104d157600435600c548110156104d157611179608091611761565b506001600160a01b0381541690600181015490600360ff60028301541691015491604051938452602084015260408301526060820152f35b346104d1575f3660031901126104d157602060ff600254166040519015158152f35b346104d15760403660031901126104d1576111ec611704565b6004355f5260036020526001600160a01b0360405f2091165f52602052602060ff60405f2054166040519015158152f35b346104d1575f3660031901126104d1576112356120d3565b60025460ff8116156112745760ff19166002557f5db9ee0a495bf2e6ff9c91a7834c1ba4fdd244a5e8aa4e537bd38aeae4b073aa6020604051338152a1005b7f8dfc202b000000000000000000000000000000000000000000000000000000005f5260045ffd5b346104d15760403660031901126104d1576112b5611704565b336001600160a01b038216036112d15761088090600435612243565b7f6697b232000000000000000000000000000000000000000000000000000000005f5260045ffd5b346104d15760403660031901126104d157610880600435611318611704565b90611331610876825f525f602052600160405f20015490565b6121b6565b346104d15760203660031901126104d15760206113606004355f525f602052600160405f20015490565b604051908152f35b346104d15760603660031901126104d15760043567ffffffffffffffff81116104d1576113999036906004016116d3565b9060243567ffffffffffffffff81116104d1576113ba9036906004016116d3565b919060443567ffffffffffffffff81116104d1576113dc9036906004016116d3565b9490926113e7612064565b6113ef612182565b8482148061162c575b156115e857603282116115a4575f5b82811061141057005b61141b81848461198e565b35151580611587575b611431575b600101611407565b61143c81878661198e565b3560048110156104d1576114669061145583868661198e565b355f52600960205260405f2061199e565b61147181848461198e565b3561147d82888761198e565b359060048210156104d157610bc76114c5926114be61149d868d8c6119b6565b919092604051956114ad87611863565b8652336020870152604086016119f8565b3691611a04565b6114d081848461198e565b356114dc82888761198e565b359060048210156104d1576114f4604051809361195d565b7f07bc402fe6669632bc611aea05cb09d9263fc670551b0e324c00ac5b933e5fb060203393a361152581848461198e565b359061153281888761198e565b3560048110156104d1576001927f72062823a06ea00fb23882967e1c59809608db4a1ba99631509f13d9852a8a4161156b848c8b6119b6565b9061157d604051928392339784611c3e565b0390a39050611429565b5061159381878661198e565b3560048110156104d1571515611424565b606460405162461bcd60e51b815260206004820152601460248201527f42617463682073697a6520746f6f206c617267650000000000000000000000006044820152fd5b606460405162461bcd60e51b815260206004820152601560248201527f4172726179206c656e677468206d69736d6174636800000000000000000000006044820152fd5b508585146113f8565b346104d15760203660031901126104d157600435907fffffffff0000000000000000000000000000000000000000000000000000000082168092036104d157817f7965db0b00000000000000000000000000000000000000000000000000000000602093149081156116a9575b5015158152f35b7f01ffc9a700000000000000000000000000000000000000000000000000000000915014836116a2565b9181601f840112156104d15782359167ffffffffffffffff83116104d1576020808501948460051b0101116104d157565b602435906001600160a01b03821682036104d157565b600435906001600160a01b03821682036104d157565b604435906001600160a01b03821682036104d157565b346104d1575f3660031901126104d157602060405160018152f35b600c5481101561177d57600c5f5260205f209060021b01905f90565b634e487b7160e01b5f52603260045260245ffd5b600b5481101561177d57600b5f5260205f209060021b01905f90565b600d5481101561177d57600d5f5260205f209060021b01905f90565b9060606003198301126104d1576004359160243560048110156104d1579160443567ffffffffffffffff81116104d157826023820112156104d15780600401359267ffffffffffffffff84116104d157602484830101116104d1576024019190565b90600182811c92168015611859575b602083101461184557565b634e487b7160e01b5f52602260045260245ffd5b91607f169161183a565b60a0810190811067ffffffffffffffff82111761040257604052565b6080810190811067ffffffffffffffff82111761040257604052565b90601f8019910116810190811067ffffffffffffffff82111761040257604052565b9060405191825f8254926118d08461182b565b808452936001811690811561193b57506001146118f7575b506118f59250038361189b565b565b90505f9291925260205f20905f915b81831061191f5750509060206118f5928201015f6118e8565b6020919350806001915483858901015201910190918492611906565b9050602092506118f594915060ff191682840152151560051b8201015f6118e8565b90600482101561042a5752565b805180835260209291819084018484015e5f828201840152601f01601f1916010190565b919081101561177d5760051b0190565b90600481101561042a5760ff80198354169116179055565b919081101561177d5760051b81013590601e19813603018212156104d157019081359167ffffffffffffffff83116104d15760200182360381136104d1579190565b600482101561042a5752565b92919267ffffffffffffffff82116104025760405191611a2e601f8201601f19166020018461189b565b8294818452818301116104d1578281602093845f960137010152565b600d54680100000000000000008110156104025760018101600d55600d5481101561177d57600d5f5260021b7fd7b6990105719101dabeb77144f2a3385c8033acd3af97e9423a695e81ad1eb5019080518255600182016001600160a01b03806020840151161673ffffffffffffffffffffffffffffffffffffffff198254161781556040820151600481101561042a577fffffffffffffffffffffff00ffffffffffffffffffffffffffffffffffffffff74ff000000000000000000000000000000000000000083549260a01b16911617905560028201606082015180519067ffffffffffffffff821161040257611b43835461182b565b601f8111611bf9575b50602090601f8311600114611b9157918060809492600396945f92611b86575b50508160011b915f1990871b1c19161790555b0151910155565b015190505f80611b6c565b90601f19831691845f52815f20925f5b818110611be15750926001928592600398966080989610611bca575b505050811b019055611b7f565b01515f1983891b60f8161c191690555f8080611bbd565b92936020600181928786015181550195019301611ba1565b835f5260205f20601f840160051c81019160208510611c34575b601f0160051c01905b818110611c295750611b4c565b5f8155600101611c1c565b9091508190611c13565b9192606093611c4e84839461195d565b60406020850152816040850152848401375f828201840152601f01601f1916010190565b15611c7957565b606460405162461bcd60e51b815260206004820152601460248201527f496e76616c6964207265636f7264696e672049440000000000000000000000006044820152fd5b15611cc457565b606460405162461bcd60e51b815260206004820152600f60248201527f526561736f6e20726571756972656400000000000000000000000000000000006044820152fd5b90815f52600860205260405f2054918215611d2f575f5260076020528160405f2054049190565b505f91508190565b5f1981146104165760010190565b67ffffffffffffffff81116104025760051b60200190565b805182101561177d5760209160051b010190565b60609260648111611f8a575f905f94600b54955b868110611f4a575082851015611ef3575083820391821161041657808211611eeb575b50611db281611d45565b92611dc0604051948561189b565b818452601f19611dcf83611d45565b015f5b818110611ebc5750505f925f925f5b87811080611eb3575b15611ea8576001600160a01b03611e0082611791565b5054166001600160a01b03841614611e21575b611e1c90611d37565b611de1565b94838510611e9457611e8b611e1c91611e3988611791565b50600360405191611e498361187f565b6001600160a01b0381541683526001810154602084015260ff6002820154161515604084015201546060820152611e80828b611d5d565b52610a79818a611d5d565b955b9050611e13565b9493611ea2611e1c91611d37565b94611e8d565b505050505050905090565b50818610611dea565b602090604051611ecb8161187f565b5f81525f838201525f60408201525f606082015282828901015201611dd2565b90505f611da8565b94505050505060405190611f0860208361189b565b5f82525f90815b828110611f1c5750505090565b602090604051611f2b8161187f565b5f81525f838201525f60408201525f8482015282828701015201611f0f565b6001600160a01b03611f5b82611791565b5054166001600160a01b03861614611f76575b600101611d85565b92611f82600191611d37565b939050611f6e565b606460405162461bcd60e51b815260206004820152600e60248201527f4c696d697420746f6f20686967680000000000000000000000000000000000006044820152fd5b15611fd557565b606460405162461bcd60e51b815260206004820152601e60248201527f43616e6e6f7420766f74652f72617465206f776e207265636f7264696e6700006044820152fd5b1561202057565b606460405162461bcd60e51b815260206004820152601660248201527f5265636f7264696e67206e6f7420617070726f766564000000000000000000006044820152fd5b335f9081527ff179aafcc4ff8137fca1ef3b9ec4d165f87016ba123e7973fba770bc55e240e3602052604090205460ff161561209c57565b63e2517d3f60e01b5f52336004527f71f3d55856e4058ed06ee057d79ada615f65cdf5f9ee88181b914225088f834f60245260445ffd5b335f9081527f7d7ffb7a348e1c6a02869081a26547b49160dd3df72d1d75a570eb9b698292ec602052604090205460ff161561210b57565b63e2517d3f60e01b5f52336004527fa49807205ce4d355092ef5a8a18f56e8913cf4a201fbe287825b095693c2177560245260445ffd5b805f525f60205260405f206001600160a01b0333165f5260205260ff60405f2054161561216c5750565b63e2517d3f60e01b5f523360045260245260445ffd5b60ff6002541661218e57565b7fd93c0665000000000000000000000000000000000000000000000000000000005f5260045ffd5b805f525f60205260405f206001600160a01b0383165f5260205260ff60405f205416155f1461223d57805f525f60205260405f206001600160a01b0383165f5260205260405f20600160ff198254161790556001600160a01b03339216907f2f8788117e7eff1d82e926ec794901d17c78024a50270940304540a733656f0d5f80a4600190565b50505f90565b805f525f60205260405f206001600160a01b0383165f5260205260ff60405f2054165f1461223d57805f525f60205260405f206001600160a01b0383165f5260205260405f2060ff1981541690556001600160a01b03339216907ff6391f5c32d9c69d2a47ea670b442974b53935d1edc7fd64eb21e047a839171b5f80a4600190565b6002600154146122d7576002600155565b7f3ee5aeb5000000000000000000000000000000000000000000000000000000005f5260045ffd5b6001600160a01b03165f818152600a602052604090205460011161237257805f52600a60205260405f208054905f19820191821161041657555b805f52600a6020527ffc577563f1b9a0461e24abef1e1fcc0d33d3d881f20b5df6dda59de4aae2c821602060405f2054604051908152a2565b805f52600a6020525f6040812055612339565b6001600160a01b0316805f52600a60205260405f20805490600182018092116104165755805f52600a6020527ffc577563f1b9a0461e24abef1e1fcc0d33d3d881f20b5df6dda59de4aae2c821602060405f2054604051908152a256fea26469706673582212203f25c229f80853eaca92bfa9e13c0ff4406d1ecdaaba3586cd6ee2268620f55864736f6c634300081e00332f8788117e7eff1d82e926ec794901d17c78024a50270940304540a733656f0d7d7ffb7a348e1c6a02869081a26547b49160dd3df72d1d75a570eb9b698292ecf179aafcc4ff8137fca1ef3b9ec4d165f87016ba123e7973fba770bc55e240e3ad3228b676f7d3cd4284a5443f17f1962b36e491b30a40b2405849e597ba5fb5","linkReferences":{}},"methodIdentifiers":{"ADMIN_ROLE()":"75b238fc","DEFAULT_ADMIN_ROLE()":"a217fddf","MAX_RATING()":"94e113ea","MIN_RATING()":"bb0e4ea2","MIN_REPUTATION_TO_MODERATE()":"a76780af","MODERATOR_ROLE()":"797669c9","REPUTATION_DOWNVOTE_PENALTY()":"f3808260","REPUTATION_UPVOTE_REWARD()":"580ce355","batchModerateRecordings(uint256[],uint8[],string[])":"0b98aa28","getRecordingModerationHistory(uint256)":"b5ff4cfa","getRecordingRating(uint256)":"9e4c18db","getRecordingVotes(uint256)":"ad4b67f4","getRoleAdmin(bytes32)":"248a9ca3","getTotalModerationActions()":"db617dd4","getTotalRatings()":"e223e314","getTotalVotes()":"9a0e7d66","getUserVotingHistory(address,uint256,uint256)":"d6a9ddd9","grantRole(bytes32,address)":"2f2ff15d","hasRated(uint256,address)":"76454486","hasRole(bytes32,address)":"91d14854","hasVoted(uint256,address)":"43859632","moderateRecording(uint256,uint8,string)":"7c5fbbfa","moderationActions(uint256)":"9e62f442","pause()":"8456cb59","paused()":"5c975abb","proposeModeration(uint256,uint8,string)":"aa4c1754","rateRecording(uint256,uint8,address)":"fa26165d","ratings(uint256)":"5d30e84d","recordingDownvotes(uint256)":"befc93f0","recordingRatingCount(uint256)":"91ebc25a","recordingStatus(uint256)":"cb3a8e57","recordingTotalRating(uint256)":"e482bb7a","recordingUpvotes(uint256)":"6b9137b0","renounceRole(bytes32,address)":"36568abe","revokeRole(bytes32,address)":"d547741f","setUserReputation(address,uint256)":"6e66fb47","supportsInterface(bytes4)":"01ffc9a7","unpause()":"3f4ba83a","userReputation(address)":"e503bb05","voteOnRecording(uint256,bool,address)":"f59afbe9","votes(uint256)":"5df81330"},"id":35}