{"abi":[{"type":"constructor","inputs":[],"stateMutability":"nonpayable"},{"type":"function","name":"ADMIN_ROLE","inputs":[],"outputs":[{"name":"","type":"bytes32","internalType":"bytes32"}],"stateMutability":"view"},{"type":"function","name":"DEFAULT_ADMIN_ROLE","inputs":[],"outputs":[{"name":"","type":"bytes32","internalType":"bytes32"}],"stateMutability":"view"},{"type":"function","name":"checkLicenseCompatibility","inputs":[{"name":"_originalLicense","type":"uint8","internalType":"enum LicenseManager.LicenseType"},{"name":"_derivativeLicense","type":"uint8","internalType":"enum LicenseManager.LicenseType"}],"outputs":[{"name":"compatible","type":"bool","internalType":"bool"},{"name":"reason","type":"string","internalType":"string"}],"stateMutability":"view"},{"type":"function","name":"getAllActiveLicenses","inputs":[],"outputs":[{"name":"activeLicenses","type":"uint8[]","internalType":"enum LicenseManager.LicenseType[]"}],"stateMutability":"view"},{"type":"function","name":"getLicenseInfo","inputs":[{"name":"_licenseType","type":"uint8","internalType":"enum LicenseManager.LicenseType"}],"outputs":[{"name":"","type":"tuple","internalType":"struct LicenseManager.LicenseInfo","components":[{"name":"name","type":"string","internalType":"string"},{"name":"description","type":"string","internalType":"string"},{"name":"url","type":"string","internalType":"string"},{"name":"allowCommercialUse","type":"bool","internalType":"bool"},{"name":"allowDerivatives","type":"bool","internalType":"bool"},{"name":"requireShareAlike","type":"bool","internalType":"bool"},{"name":"requireAttribution","type":"bool","internalType":"bool"},{"name":"isActive","type":"bool","internalType":"bool"}]}],"stateMutability":"view"},{"type":"function","name":"getRecordingLicense","inputs":[{"name":"_recordingId","type":"uint256","internalType":"uint256"}],"outputs":[{"name":"licenseType","type":"uint8","internalType":"enum LicenseManager.LicenseType"},{"name":"attribution","type":"string","internalType":"string"},{"name":"licenseInfo","type":"tuple","internalType":"struct LicenseManager.LicenseInfo","components":[{"name":"name","type":"string","internalType":"string"},{"name":"description","type":"string","internalType":"string"},{"name":"url","type":"string","internalType":"string"},{"name":"allowCommercialUse","type":"bool","internalType":"bool"},{"name":"allowDerivatives","type":"bool","internalType":"bool"},{"name":"requireShareAlike","type":"bool","internalType":"bool"},{"name":"requireAttribution","type":"bool","internalType":"bool"},{"name":"isActive","type":"bool","internalType":"bool"}]}],"stateMutability":"view"},{"type":"function","name":"getRoleAdmin","inputs":[{"name":"role","type":"bytes32","internalType":"bytes32"}],"outputs":[{"name":"","type":"bytes32","internalType":"bytes32"}],"stateMutability":"view"},{"type":"function","name":"getUserLicensePreferences","inputs":[{"name":"_user","type":"address","internalType":"address"}],"outputs":[{"name":"preferredLicenses","type":"uint8[]","internalType":"enum LicenseManager.LicenseType[]"}],"stateMutability":"view"},{"type":"function","name":"grantRole","inputs":[{"name":"role","type":"bytes32","internalType":"bytes32"},{"name":"account","type":"address","internalType":"address"}],"outputs":[],"stateMutability":"nonpayable"},{"type":"function","name":"hasRole","inputs":[{"name":"role","type":"bytes32","internalType":"bytes32"},{"name":"account","type":"address","internalType":"address"}],"outputs":[{"name":"","type":"bool","internalType":"bool"}],"stateMutability":"view"},{"type":"function","name":"licenses","inputs":[{"name":"","type":"uint8","internalType":"enum LicenseManager.LicenseType"}],"outputs":[{"name":"name","type":"string","internalType":"string"},{"name":"description","type":"string","internalType":"string"},{"name":"url","type":"string","internalType":"string"},{"name":"allowCommercialUse","type":"bool","internalType":"bool"},{"name":"allowDerivatives","type":"bool","internalType":"bool"},{"name":"requireShareAlike","type":"bool","internalType":"bool"},{"name":"requireAttribution","type":"bool","internalType":"bool"},{"name":"isActive","type":"bool","internalType":"bool"}],"stateMutability":"view"},{"type":"function","name":"pause","inputs":[],"outputs":[],"stateMutability":"nonpayable"},{"type":"function","name":"paused","inputs":[],"outputs":[{"name":"","type":"bool","internalType":"bool"}],"stateMutability":"view"},{"type":"function","name":"recordingAttributions","inputs":[{"name":"","type":"uint256","internalType":"uint256"}],"outputs":[{"name":"","type":"string","internalType":"string"}],"stateMutability":"view"},{"type":"function","name":"recordingLicenses","inputs":[{"name":"","type":"uint256","internalType":"uint256"}],"outputs":[{"name":"","type":"uint8","internalType":"enum LicenseManager.LicenseType"}],"stateMutability":"view"},{"type":"function","name":"renounceRole","inputs":[{"name":"role","type":"bytes32","internalType":"bytes32"},{"name":"callerConfirmation","type":"address","internalType":"address"}],"outputs":[],"stateMutability":"nonpayable"},{"type":"function","name":"reportLicenseViolation","inputs":[{"name":"_recordingId","type":"uint256","internalType":"uint256"},{"name":"_reason","type":"string","internalType":"string"}],"outputs":[],"stateMutability":"nonpayable"},{"type":"function","name":"revokeRole","inputs":[{"name":"role","type":"bytes32","internalType":"bytes32"},{"name":"account","type":"address","internalType":"address"}],"outputs":[],"stateMutability":"nonpayable"},{"type":"function","name":"setRecordingLicense","inputs":[{"name":"_recordingId","type":"uint256","internalType":"uint256"},{"name":"_licenseType","type":"uint8","internalType":"enum LicenseManager.LicenseType"},{"name":"_attribution","type":"string","internalType":"string"}],"outputs":[],"stateMutability":"nonpayable"},{"type":"function","name":"setUserLicensePreference","inputs":[{"name":"_licenseType","type":"uint8","internalType":"enum LicenseManager.LicenseType"},{"name":"_preferred","type":"bool","internalType":"bool"}],"outputs":[],"stateMutability":"nonpayable"},{"type":"function","name":"supportsInterface","inputs":[{"name":"interfaceId","type":"bytes4","internalType":"bytes4"}],"outputs":[{"name":"","type":"bool","internalType":"bool"}],"stateMutability":"view"},{"type":"function","name":"unpause","inputs":[],"outputs":[],"stateMutability":"nonpayable"},{"type":"function","name":"updateLicense","inputs":[{"name":"_licenseType","type":"uint8","internalType":"enum LicenseManager.LicenseType"},{"name":"_name","type":"string","internalType":"string"},{"name":"_description","type":"string","internalType":"string"},{"name":"_url","type":"string","internalType":"string"},{"name":"_allowCommercialUse","type":"bool","internalType":"bool"},{"name":"_allowDerivatives","type":"bool","internalType":"bool"},{"name":"_requireShareAlike","type":"bool","internalType":"bool"},{"name":"_requireAttribution","type":"bool","internalType":"bool"},{"name":"_isActive","type":"bool","internalType":"bool"}],"outputs":[],"stateMutability":"nonpayable"},{"type":"function","name":"userLicensePreferences","inputs":[{"name":"","type":"address","internalType":"address"},{"name":"","type":"uint8","internalType":"enum LicenseManager.LicenseType"}],"outputs":[{"name":"","type":"bool","internalType":"bool"}],"stateMutability":"view"},{"type":"event","name":"LicenseUpdated","inputs":[{"name":"licenseType","type":"uint8","indexed":true,"internalType":"enum LicenseManager.LicenseType"},{"name":"name","type":"string","indexed":false,"internalType":"string"},{"name":"description","type":"string","indexed":false,"internalType":"string"}],"anonymous":false},{"type":"event","name":"LicenseViolationReported","inputs":[{"name":"recordingId","type":"uint256","indexed":true,"internalType":"uint256"},{"name":"reporter","type":"address","indexed":true,"internalType":"address"},{"name":"reason","type":"string","indexed":false,"internalType":"string"}],"anonymous":false},{"type":"event","name":"Paused","inputs":[{"name":"account","type":"address","indexed":false,"internalType":"address"}],"anonymous":false},{"type":"event","name":"RecordingLicenseSet","inputs":[{"name":"recordingId","type":"uint256","indexed":true,"internalType":"uint256"},{"name":"licenseType","type":"uint8","indexed":false,"internalType":"enum LicenseManager.LicenseType"},{"name":"attribution","type":"string","indexed":false,"internalType":"string"}],"anonymous":false},{"type":"event","name":"RoleAdminChanged","inputs":[{"name":"role","type":"bytes32","indexed":true,"internalType":"bytes32"},{"name":"previousAdminRole","type":"bytes32","indexed":true,"internalType":"bytes32"},{"name":"newAdminRole","type":"bytes32","indexed":true,"internalType":"bytes32"}],"anonymous":false},{"type":"event","name":"RoleGranted","inputs":[{"name":"role","type":"bytes32","indexed":true,"internalType":"bytes32"},{"name":"account","type":"address","indexed":true,"internalType":"address"},{"name":"sender","type":"address","indexed":true,"internalType":"address"}],"anonymous":false},{"type":"event","name":"RoleRevoked","inputs":[{"name":"role","type":"bytes32","indexed":true,"internalType":"bytes32"},{"name":"account","type":"address","indexed":true,"internalType":"address"},{"name":"sender","type":"address","indexed":true,"internalType":"address"}],"anonymous":false},{"type":"event","name":"Unpaused","inputs":[{"name":"account","type":"address","indexed":false,"internalType":"address"}],"anonymous":false},{"type":"event","name":"UserLicensePreferenceSet","inputs":[{"name":"user","type":"address","indexed":true,"internalType":"address"},{"name":"licenseType","type":"uint8","indexed":false,"internalType":"enum LicenseManager.LicenseType"},{"name":"preferred","type":"bool","indexed":false,"internalType":"bool"}],"anonymous":false},{"type":"error","name":"AccessControlBadConfirmation","inputs":[]},{"type":"error","name":"AccessControlUnauthorizedAccount","inputs":[{"name":"account","type":"address","internalType":"address"},{"name":"neededRole","type":"bytes32","internalType":"bytes32"}]},{"type":"error","name":"EnforcedPause","inputs":[]},{"type":"error","name":"ExpectedPause","inputs":[]}],"bytecode":{"object":"0x608060405234612836576100123361283a565b5061001c336128b0565b50610025612943565b61002f6040612963565b601381527f416c6c2052696768747320526573657276656400000000000000000000000000602082015281526100656080612963565b90604782527f547261646974696f6e616c20636f70797269676874202d206e6f207065726d6960208301527f7373696f6e73206772616e74656420776974686f7574206578706c69636974206040830152666c6963656e736560c81b6060830152602081019182526100d76020612963565b915f83526040820192835260608201925f8452608083015f815260a08401935f855260c08101925f845260e0820194600186525f8052600260205260405f20925180519060018060401b03821161171157845490600182811c9216801561282c575b60208310146116f35781601f8493116127dc575b50602090601f8311600114612779575f9261276e575b50508160011b915f199060031b1c19161783555b51805160018401916001600160401b03821161171157825490600182811c92168015612764575b60208310146116f35781601f849311612714575b50602090601f83116001146126b1575f926126a6575b50508160011b915f199060031b1c19161790555b51805160028301916001600160401b038211611711578254600181811c9116801561269c575b60208210146116f357601f8111612657575b50602090601f83116001146125ff57928260039363ff00000098979693610266965f92611633575b50508160011b915f1990861b1c19161790555b0196511515879060ff801983541691151516179055565b51151564ff0000000062ff000087549651151560101b169251151560181b9451151560201b169461ff0064ff00000000199260081b169063ffffff0019161716179116171790556102b5612943565b6102bf6040612963565b602081527f437265617469766520436f6d6d6f6e73204174747269627574696f6e20342e30602082015281526102f56080612963565b90604582525f5160206145f15f395f51905f5260208301525f5160206146315f395f51905f526040830152646f7469636560d81b60608301526020810191825261033f6060612963565b91602c83525f5160206146115f395f51905f5260208401526b6e7365732f62792f342e302f60a01b604084015260408201928352606082019260018452608083016001815260a08401935f855260c08101926001845260e08201946001865260015f52600260205260405f20925180519060018060401b03821161171157845490600182811c921680156125f5575b60208310146116f35781601f8493116125a5575b50602090601f8311600114612542575f92612537575b50508160011b915f199060031b1c19161783555b51805160018401916001600160401b03821161171157825490600182811c9216801561252d575b60208310146116f35781601f8493116124dd575b50602090601f831160011461247a575f9261246f575b50508160011b915f199060031b1c19161790555b51805160028301916001600160401b038211611711578254600181811c91168015612465575b60208210146116f357601f8111612420575b50602090601f83116001146123c857928260039363ff000000989796936104f9965f926116335750508160011b915f1990861b1c19161790550196511515879060ff801983541691151516179055565b51151564ff0000000062ff000087549651151560101b169251151560181b9451151560201b169461ff0064ff00000000199260081b169063ffffff001916171617911617179055610548612943565b6105526060612963565b602b81527f437265617469766520436f6d6d6f6e73204174747269627574696f6e2d53686160208201526a07265416c696b6520342e360ac1b6040820152815261059c60a0612963565b90607d82525f5160206145f15f395f51905f5260208301525f5160206146315f395f51905f5260408301527f6f746963652e204465726976617469766520776f726b73206d7573742062652060608301527f6c6963656e73656420756e646572207468652073616d65207465726d730000006080830152602081019182526106246060612963565b91602f83525f5160206146115f395f51905f5260208401526e6e7365732f62792d73612f342e302f60881b604084015260408201928352606082019260018452608083016001815260a08401936001855260c08101926001845260e08201946001865260025f52600260205260405f20925180519060018060401b03821161171157845490600182811c921680156123be575b60208310146116f35781601f84931161236e575b50602090601f831160011461230b575f92612300575b50508160011b915f199060031b1c19161783555b51805160018401916001600160401b03821161171157825490600182811c921680156122f6575b60208310146116f35781601f8493116122a6575b50602090601f8311600114612243575f92612238575b50508160011b915f199060031b1c19161790555b51805160028301916001600160401b038211611711578254600181811c9116801561222e575b60208210146116f357601f81116121e9575b50602090601f831160011461219157928260039363ff000000989796936107e2965f926116335750508160011b915f1990861b1c19161790550196511515879060ff801983541691151516179055565b51151564ff0000000062ff000087549651151560101b169251151560181b9451151560201b169461ff0064ff00000000199260081b169063ffffff001916171617911617179055610831612943565b61083b6060612963565b602e81525f5160206145d15f395f51905f5260208201526d0436f6d6d65726369616c20342e360941b604082015281526108756060612963565b90603c82525f5160206146515f395f51905f5260208301527f6e6f6e2d636f6d6d65726369616c20707572706f736573206f6e6c79000000006040830152602081019182526108c46060612963565b91602f83525f5160206146115f395f51905f5260208401526e6e7365732f62792d6e632f342e302f60881b60408401526040820192835260608201925f8452608083016001815260a08401935f855260c08101926001845260e08201946001865260035f52600260205260405f20925180519060018060401b03821161171157845490600182811c92168015612187575b60208310146116f35781601f849311612137575b50602090601f83116001146120d4575f926120c9575b50508160011b915f199060031b1c19161783555b51805160018401916001600160401b03821161171157825490600182811c921680156120bf575b60208310146116f35781601f84931161206f575b50602090601f831160011461200c575f92612001575b50508160011b915f199060031b1c19161790555b51805160028301916001600160401b038211611711578254600181811c91168015611ff7575b60208210146116f357601f8111611fb2575b50602090601f8311600114611f5a57928260039363ff00000098979693610a80965f926116335750508160011b915f1990861b1c19161790550196511515879060ff801983541691151516179055565b51151564ff0000000062ff000087549651151560101b169251151560181b9451151560201b169461ff0064ff00000000199260081b169063ffffff001916171617911617179055610acf612943565b610ad96060612963565b603981525f5160206145d15f395f51905f5260208201527f436f6d6d65726369616c2d5368617265416c696b6520342e300000000000000060408201528152610b226080612963565b90605982525f5160206146515f395f51905f5260208301527f6e6f6e2d636f6d6d65726369616c20707572706f736573206f6e6c792c20776960408301527f7468205368617265416c696b6520726571756972656d656e7400000000000000606083015260208101918252610b976060612963565b91603283525f5160206146115f395f51905f526020840152716e7365732f62792d6e632d73612f342e302f60701b60408401526040820192835260608201925f8452608083016001815260a08401936001855260c08101926001845260e08201946001865260045f52600260205260405f20925180519060018060401b03821161171157845490600182811c92168015611f50575b60208310146116f35781601f849311611f00575b50602090601f8311600114611e9d575f92611e92575b50508160011b915f199060031b1c19161783555b51805160018401916001600160401b03821161171157825490600182811c92168015611e88575b60208310146116f35781601f849311611e38575b50602090601f8311600114611dd5575f92611dca575b50508160011b915f199060031b1c19161790555b51805160028301916001600160401b038211611711578254600181811c91168015611dc0575b60208210146116f357601f8111611d7b575b50602090601f8311600114611d2357928260039363ff00000098979693610d57965f926116335750508160011b915f1990861b1c19161790550196511515879060ff801983541691151516179055565b51151564ff0000000062ff000087549651151560101b169251151560181b9451151560201b169461ff0064ff00000000199260081b169063ffffff001916171617911617179055610da6612943565b610db06060612963565b602e81527f437265617469766520436f6d6d6f6e73204174747269627574696f6e2d4e6f4460208201526d06572697661746976657320342e360941b60408201528152610dfd6080612963565b90604682527f5065726d6974732075736520666f7220616e7920707572706f7365206275742060208301527f70726f686962697473206372656174696f6e206f66206465726976617469766560408301526520776f726b7360d01b606083015260208101918252610e6e6060612963565b91602f83525f5160206146115f395f51905f5260208401526e6e7365732f62792d6e642f342e302f60881b604084015260408201928352606082019260018452608083015f815260a08401935f855260c08101926001845260e08201946001865260055f52600260205260405f20925180519060018060401b03821161171157845490600182811c92168015611d19575b60208310146116f35781601f849311611cc9575b50602090601f8311600114611c66575f92611c5b575b50508160011b915f199060031b1c19161783555b51805160018401916001600160401b03821161171157825490600182811c92168015611c51575b60208310146116f35781601f849311611c01575b50602090601f8311600114611b9e575f92611b93575b50508160011b915f199060031b1c19161790555b51805160028301916001600160401b038211611711578254600181811c91168015611b89575b60208210146116f357601f8111611b44575b50602090601f8311600114611aec57928260039363ff0000009897969361102a965f926116335750508160011b915f1990861b1c19161790550196511515879060ff801983541691151516179055565b51151564ff0000000062ff000087549651151560101b169251151560181b9451151560201b169461ff0064ff00000000199260081b169063ffffff001916171617911617179055611079612943565b6110836060612963565b603c81525f5160206145d15f395f51905f5260208201527f436f6d6d65726369616c2d4e6f446572697661746976657320342e3000000000604082015281526110cc60a0612963565b90606b82527f4d6f7374207265737472696374697665204343206c6963656e7365202d206f6e60208301527f6c7920616c6c6f777320646f776e6c6f616420616e642073686172696e67207760408301527f697468206174747269627574696f6e20666f72206e6f6e2d636f6d6d6572636960608301526a616c20707572706f73657360a81b6080830152602081019182526111686060612963565b91603283525f5160206146115f395f51905f526020840152716e7365732f62792d6e632d6e642f342e302f60701b60408401526040820192835260608201925f8452608083015f815260a08401935f855260c08101926001845260e08201946001865260065f52600260205260405f20925180519060018060401b03821161171157845490600182811c92168015611ae2575b60208310146116f35781601f849311611a92575b50602090601f8311600114611a2f575f92611a24575b50508160011b915f199060031b1c19161783555b51805160018401916001600160401b03821161171157825490600182811c92168015611a1a575b60208310146116f35781601f8493116119ca575b50602090601f8311600114611967575f9261195c575b50508160011b915f199060031b1c19161790555b51805160028301916001600160401b038211611711578254600181811c91168015611952575b60208210146116f357601f811161190d575b50602090601f83116001146118b557928260039363ff00000098979693611326965f926116335750508160011b915f1990861b1c19161790550196511515879060ff801983541691151516179055565b51151564ff0000000062ff000087549651151560101b169251151560181b9451151560201b169461ff0064ff00000000199260081b169063ffffff001916171617911617179055611375612943565b61137f6040612963565b601381527f5075626c696320446f6d61696e20284343302900000000000000000000000000602082015281526113b56060612963565b90603182527f4e6f20726967687473207265736572766564202d20776f726b20697320696e206020830152703a343290383ab13634b1903237b6b0b4b760791b60408301526020810191825261140b6060612963565b91603283527f68747470733a2f2f6372656174697665636f6d6d6f6e732e6f72672f7075626c6020840152716963646f6d61696e2f7a65726f2f312e302f60701b604084015260408201928352606082019260018452608083016001815260a08401935f855260c08101925f845260e08201946001865260075f52600260205260405f20925180519060018060401b03821161171157845490600182811c921680156118ab575b60208310146116f35781601f84931161185b575b50602090601f83116001146117f8575f926117ed575b50508160011b915f199060031b1c19161783555b51805160018401916001600160401b03821161171157825490600182811c921680156117e3575b60208310146116f35781601f849311611793575b50602090601f8311600114611730575f92611725575b50508160011b915f199060031b1c19161790555b51805160028301916001600160401b038211611711578254600181811c91168015611707575b60208210146116f357601f81116116ae575b50602090601f831160011461163e57928260039363ff000000989796936115dd965f926116335750508160011b915f1990861b1c19161790550196511515879060ff801983541691151516179055565b51151564ff0000000062ff000087549651151560101b169251151560181b9451151560201b169461ff0064ff00000000199260081b169063ffffff001916171617911617179055604051611c0890816129898239f35b015190505f8061023c565b90601f19831691845f52815f20925f5b81811061169657509363ff000000989796936115dd9693600193836003981061167f575b505050811b01905561024f565b01515f1983881b60f8161c191690555f8080611672565b9293602060018192878601518155019501930161164e565b835f5260205f20601f840160051c810191602085106116e9575b601f0160051c01905b8181106116de575061158d565b5f81556001016116d1565b90915081906116c8565b634e487b7160e01b5f52602260045260245ffd5b90607f169061157b565b634e487b7160e01b5f52604160045260245ffd5b015190505f80611541565b5f8581528281209350601f198516905b81811061177b5750908460019594939210611763575b505050811b019055611555565b01515f1960f88460031b161c191690555f8080611756565b92936020600181928786015181550195019301611740565b909150835f5260205f20601f840160051c810191602085106117d9575b90601f859493920160051c01905b8181106117cb575061152b565b5f81558493506001016117be565b90915081906117b0565b91607f1691611517565b015190505f806114dc565b5f8781528281209350601f198516905b818110611843575090846001959493921061182b575b505050811b0183556114f0565b01515f1960f88460031b161c191690555f808061181e565b92936020600181928786015181550195019301611808565b909150855f5260205f20601f840160051c810191602085106118a1575b90601f859493920160051c01905b81811061189357506114c6565b5f8155849350600101611886565b9091508190611878565b91607f16916114b2565b90601f19831691845f52815f20925f5b8181106118f557509363ff000000989796936113269693600193836003981061167f57505050811b01905561024f565b929360206001819287860151815501950193016118c5565b835f5260205f20601f840160051c81019160208510611948575b601f0160051c01905b81811061193d57506112d6565b5f8155600101611930565b9091508190611927565b90607f16906112c4565b015190505f8061128a565b5f8581528281209350601f198516905b8181106119b2575090846001959493921061199a575b505050811b01905561129e565b01515f1960f88460031b161c191690555f808061198d565b92936020600181928786015181550195019301611977565b909150835f5260205f20601f840160051c81019160208510611a10575b90601f859493920160051c01905b818110611a025750611274565b5f81558493506001016119f5565b90915081906119e7565b91607f1691611260565b015190505f80611225565b5f8781528281209350601f198516905b818110611a7a5750908460019594939210611a62575b505050811b018355611239565b01515f1960f88460031b161c191690555f8080611a55565b92936020600181928786015181550195019301611a3f565b909150855f5260205f20601f840160051c81019160208510611ad8575b90601f859493920160051c01905b818110611aca575061120f565b5f8155849350600101611abd565b9091508190611aaf565b91607f16916111fb565b90601f19831691845f52815f20925f5b818110611b2c57509363ff0000009897969361102a9693600193836003981061167f57505050811b01905561024f565b92936020600181928786015181550195019301611afc565b835f5260205f20601f840160051c81019160208510611b7f575b601f0160051c01905b818110611b745750610fda565b5f8155600101611b67565b9091508190611b5e565b90607f1690610fc8565b015190505f80610f8e565b5f8581528281209350601f198516905b818110611be95750908460019594939210611bd1575b505050811b019055610fa2565b01515f1960f88460031b161c191690555f8080611bc4565b92936020600181928786015181550195019301611bae565b909150835f5260205f20601f840160051c81019160208510611c47575b90601f859493920160051c01905b818110611c395750610f78565b5f8155849350600101611c2c565b9091508190611c1e565b91607f1691610f64565b015190505f80610f29565b5f8781528281209350601f198516905b818110611cb15750908460019594939210611c99575b505050811b018355610f3d565b01515f1960f88460031b161c191690555f8080611c8c565b92936020600181928786015181550195019301611c76565b909150855f5260205f20601f840160051c81019160208510611d0f575b90601f859493920160051c01905b818110611d015750610f13565b5f8155849350600101611cf4565b9091508190611ce6565b91607f1691610eff565b90601f19831691845f52815f20925f5b818110611d6357509363ff00000098979693610d579693600193836003981061167f57505050811b01905561024f565b92936020600181928786015181550195019301611d33565b835f5260205f20601f840160051c81019160208510611db6575b601f0160051c01905b818110611dab5750610d07565b5f8155600101611d9e565b9091508190611d95565b90607f1690610cf5565b015190505f80610cbb565b5f8581528281209350601f198516905b818110611e205750908460019594939210611e08575b505050811b019055610ccf565b01515f1960f88460031b161c191690555f8080611dfb565b92936020600181928786015181550195019301611de5565b909150835f5260205f20601f840160051c81019160208510611e7e575b90601f859493920160051c01905b818110611e705750610ca5565b5f8155849350600101611e63565b9091508190611e55565b91607f1691610c91565b015190505f80610c56565b5f8781528281209350601f198516905b818110611ee85750908460019594939210611ed0575b505050811b018355610c6a565b01515f1960f88460031b161c191690555f8080611ec3565b92936020600181928786015181550195019301611ead565b909150855f5260205f20601f840160051c81019160208510611f46575b90601f859493920160051c01905b818110611f385750610c40565b5f8155849350600101611f2b565b9091508190611f1d565b91607f1691610c2c565b90601f19831691845f52815f20925f5b818110611f9a57509363ff00000098979693610a809693600193836003981061167f57505050811b01905561024f565b92936020600181928786015181550195019301611f6a565b835f5260205f20601f840160051c81019160208510611fed575b601f0160051c01905b818110611fe25750610a30565b5f8155600101611fd5565b9091508190611fcc565b90607f1690610a1e565b015190505f806109e4565b5f8581528281209350601f198516905b818110612057575090846001959493921061203f575b505050811b0190556109f8565b01515f1960f88460031b161c191690555f8080612032565b9293602060018192878601518155019501930161201c565b909150835f5260205f20601f840160051c810191602085106120b5575b90601f859493920160051c01905b8181106120a757506109ce565b5f815584935060010161209a565b909150819061208c565b91607f16916109ba565b015190505f8061097f565b5f8781528281209350601f198516905b81811061211f5750908460019594939210612107575b505050811b018355610993565b01515f1960f88460031b161c191690555f80806120fa565b929360206001819287860151815501950193016120e4565b909150855f5260205f20601f840160051c8101916020851061217d575b90601f859493920160051c01905b81811061216f5750610969565b5f8155849350600101612162565b9091508190612154565b91607f1691610955565b90601f19831691845f52815f20925f5b8181106121d157509363ff000000989796936107e29693600193836003981061167f57505050811b01905561024f565b929360206001819287860151815501950193016121a1565b835f5260205f20601f840160051c81019160208510612224575b601f0160051c01905b8181106122195750610792565b5f815560010161220c565b9091508190612203565b90607f1690610780565b015190505f80610746565b5f8581528281209350601f198516905b81811061228e5750908460019594939210612276575b505050811b01905561075a565b01515f1960f88460031b161c191690555f8080612269565b92936020600181928786015181550195019301612253565b909150835f5260205f20601f840160051c810191602085106122ec575b90601f859493920160051c01905b8181106122de5750610730565b5f81558493506001016122d1565b90915081906122c3565b91607f169161071c565b015190505f806106e1565b5f8781528281209350601f198516905b818110612356575090846001959493921061233e575b505050811b0183556106f5565b01515f1960f88460031b161c191690555f8080612331565b9293602060018192878601518155019501930161231b565b909150855f5260205f20601f840160051c810191602085106123b4575b90601f859493920160051c01905b8181106123a657506106cb565b5f8155849350600101612399565b909150819061238b565b91607f16916106b7565b90601f19831691845f52815f20925f5b81811061240857509363ff000000989796936104f99693600193836003981061167f57505050811b01905561024f565b929360206001819287860151815501950193016123d8565b835f5260205f20601f840160051c8101916020851061245b575b601f0160051c01905b81811061245057506104a9565b5f8155600101612443565b909150819061243a565b90607f1690610497565b015190505f8061045d565b5f8581528281209350601f198516905b8181106124c557509084600195949392106124ad575b505050811b019055610471565b01515f1960f88460031b161c191690555f80806124a0565b9293602060018192878601518155019501930161248a565b909150835f5260205f20601f840160051c81019160208510612523575b90601f859493920160051c01905b8181106125155750610447565b5f8155849350600101612508565b90915081906124fa565b91607f1691610433565b015190505f806103f8565b5f8781528281209350601f198516905b81811061258d5750908460019594939210612575575b505050811b01835561040c565b01515f1960f88460031b161c191690555f8080612568565b92936020600181928786015181550195019301612552565b909150855f5260205f20601f840160051c810191602085106125eb575b90601f859493920160051c01905b8181106125dd57506103e2565b5f81558493506001016125d0565b90915081906125c2565b91607f16916103ce565b90601f19831691845f52815f20925f5b81811061263f57509363ff000000989796936102669693600193836003981061167f57505050811b01905561024f565b9293602060018192878601518155019501930161260f565b835f5260205f20601f840160051c81019160208510612692575b601f0160051c01905b8181106126875750610214565b5f815560010161267a565b9091508190612671565b90607f1690610202565b015190505f806101c8565b5f8581528281209350601f198516905b8181106126fc57509084600195949392106126e4575b505050811b0190556101dc565b01515f1960f88460031b161c191690555f80806126d7565b929360206001819287860151815501950193016126c1565b909150835f5260205f20601f840160051c8101916020851061275a575b90601f859493920160051c01905b81811061274c57506101b2565b5f815584935060010161273f565b9091508190612731565b91607f169161019e565b015190505f80610163565b5f8781528281209350601f198516905b8181106127c457509084600195949392106127ac575b505050811b018355610177565b01515f1960f88460031b161c191690555f808061279f565b92936020600181928786015181550195019301612789565b909150855f5260205f20601f840160051c81019160208510612822575b90601f859493920160051c01905b818110612814575061014d565b5f8155849350600101612807565b90915081906127f9565b91607f1691610139565b5f80fd5b6001600160a01b0381165f9081525f5160206146715f395f51905f52602052604090205460ff166128ab576001600160a01b03165f8181525f5160206146715f395f51905f5260205260408120805460ff191660011790553391905f5160206145915f395f51905f528180a4600190565b505f90565b6001600160a01b0381165f9081525f5160206145b15f395f51905f52602052604090205460ff166128ab576001600160a01b03165f8181525f5160206145b15f395f51905f5260205260408120805460ff191660011790553391907fa49807205ce4d355092ef5a8a18f56e8913cf4a201fbe287825b095693c21775905f5160206145915f395f51905f529080a4600190565b6040519061010082016001600160401b0381118382101761171157604052565b6040519190601f01601f191682016001600160401b038111838210176117115760405256fe6080806040526004361015610012575f80fd5b5f3560e01c90816301ffc9a71461115357508063107230611461111557806315dd0ec114611042578063248a9ca3146110105780632530a0a314610f605780632f2ff15d14610f23578063356bc1a814610aaa57806336568abe14610a4d5780633ef600ff146109525780633f4ba83a146108d35780633fe4d3d0146108815780635c975abb1461085f57806371e9f1511461080e57806375b238fc146107d45780638456cb591461077c57806388192e36146105225780638e1fca42146104ee57806391d14854146104a5578063a217fddf1461048b578063be1a24f6146103d9578063c911ce1a146102ff578063c95749a914610239578063cb41b1841461016c5763d547741f14610124575f80fd5b34610168576040366003190112610168576101666004356101436113bd565b9061016161015c825f525f602052600160405f20015490565b611a82565b611b4f565b005b5f80fd5b34610168576020366003190112610168576004356008811015610168576101956101dc91611467565b61019e81611268565b9060ff6101f86101b060018401611268565b926101ea60036101c260028401611268565b920154946040519788976101008952610100890190611308565b908782036020890152611308565b908582036040870152611308565b9181811615156060850152818160081c1615156080850152818160101c16151560a0850152818160181c16151560c085015260201c16151560e08301520390f35b346101685760203660031901126101685760043560088110156101685761026b6102fb91610265611634565b50611467565b60ff60036040519261027c84611229565b61028581611268565b845261029360018201611268565b60208501526102a460028201611268565b6040850152015481811615156060840152818160081c1615156080840152818160101c16151560a0840152818160181c16151560c084015260201c16151560e08201526040519182916020835260208301906113e9565b0390f35b34610168576020366003190112610168576103186113d3565b6001600160a01b03165f805b600881101561036757825f52600560205260ff6103448260405f2061147e565b5416610353575b600101610324565b9061035f6001916114ff565b91905061034b565b5061037190611539565b905f5f5b60088110156103cb57825f52600560205260ff6103958260405f2061147e565b54166103a4575b600101610375565b906103c36001916103be846103b9838961156b565b611593565b6114ff565b91905061039c565b604051806102fb868261137b565b34610168576040366003190112610168576004356008811015610168576024358015159081810361016857610451906104106119df565b61042b60ff600361042087611467565b015460201c16611994565b335f5260056020526104408460405f2061147e565b9060ff801983541691151516179055565b61045e604051809361135a565b60208201527f4c99ddc47c28524798aea7315415f69b0a671f07adeab1c80c85d937bc7d082660403392a2005b34610168575f3660031901126101685760206040515f8152f35b34610168576040366003190112610168576104be6113bd565b6004355f525f6020526001600160a01b0360405f2091165f52602052602060ff60405f2054166040519015158152f35b34610168576020366003190112610168576004355f526003602052602060ff60405f205416610520604051809261135a565bf35b346101685760603660031901126101685760043560243560088110156101685760443567ffffffffffffffff81116101685761056290369060040161132c565b61056a6119df565b61057a60ff600361042086611467565b610585841515611494565b60ff600361059285611467565b015460181c1661070d575b835f52600360205260405f2060ff1981541660ff8516179055835f52600460205260405f2067ffffffffffffffff82116106f9576105e5826105df83546111f1565b836115e5565b5f601f831160011461066c57928261065c9261063c827fb44abb9a1f82baf481846467761d0d15dc7a56ee18129607f5c054d4e60eddd6989661064b985f91610661575b508160011b915f199060031b1c19161790565b90555b6040519485809561135a565b6040602085015260408401916114df565b0390a2005b90508501358b610629565b601f19831690825f5260205f20915f5b8181106106e157509261064b959285927fb44abb9a1f82baf481846467761d0d15dc7a56ee18129607f5c054d4e60eddd6989661065c96106106c8575b5050600182811b01905561063f565b8401355f19600385901b60f8161c1916905588806106b9565b9192602060018192868a01358155019401920161067c565b634e487b7160e01b5f52604160045260245ffd5b8061059d57608460405162461bcd60e51b815260206004820152602560248201527f4174747269627574696f6e20726571756972656420666f722074686973206c6960448201527f63656e73650000000000000000000000000000000000000000000000000000006064820152fd5b34610168575f36600319011261016857610794611a13565b61079c6119df565b600160ff19815416176001557f62e78cea01bee320cd4e420270b5ea74000d11b0c9f74754ebdbfc544b05a2586020604051338152a1005b34610168575f3660031901126101685760206040517fa49807205ce4d355092ef5a8a18f56e8913cf4a201fbe287825b095693c217758152f35b346101685760403660031901126101685760043560088110156101685760243560088110156101685761084091611673565b906102fb60405192839215158352604060208401526040830190611308565b34610168575f36600319011261016857602060ff600154166040519015158152f35b346101685760403660031901126101685761089a6113d3565b6024356008811015610168576108c760ff916001600160a01b03602094165f526005845260405f2061147e565b54166040519015158152f35b34610168575f366003190112610168576108eb611a13565b60015460ff81161561092a5760ff19166001557f5db9ee0a495bf2e6ff9c91a7834c1ba4fdd244a5e8aa4e537bd38aeae4b073aa6020604051338152a1005b7f8dfc202b000000000000000000000000000000000000000000000000000000005f5260045ffd5b3461016857602036600319011261016857610a2e600435610971611634565b50805f52600360205260ff60405f205416905f5260046020526102fb61099960405f20611268565b610a3f6109a584611467565b9160ff6003604051946109b786611229565b6109c081611268565b86526109ce60018201611268565b60208701526109df60028201611268565b6040870152015481811615156060860152818160081c1615156080860152818160101c16151560a0860152818160181c16151560c086015260201c16151560e08401526040519586809661135a565b606060208601526060850190611308565b9083820360408501526113e9565b3461016857604036600319011261016857610a666113bd565b336001600160a01b03821603610a825761016690600435611b4f565b7f6697b232000000000000000000000000000000000000000000000000000000005f5260045ffd5b34610168576101203660031901126101685760043560088110156101685760243567ffffffffffffffff811161016857610ae890369060040161132c565b60443567ffffffffffffffff811161016857610b0890369060040161132c565b60643567ffffffffffffffff811161016857610b2890369060040161132c565b90608435918215158093036101685760a435918215158093036101685760c435928315158094036101685760e4359182151580930361016857610104359384151580950361016857610b78611a13565b610b806119df565b610bb760405192610b9084611229565b610b9b368d8f61159f565b8452610ba8368b8d61159f565b9260208501938452369161159f565b9060408301918252606083019788526080830193845260a0830196875260c0830194855260e08301958652610beb8d611467565b925180519067ffffffffffffffff82116106f957610c1382610c0d87546111f1565b876115e5565b602090601f8311600114610ec057610c4292915f9183610db5575b50508160011b915f199060031b1c19161790565b83555b518051600184019167ffffffffffffffff82116106f957610c7082610c6a85546111f1565b856115e5565b602090601f8311600114610e5d57610c9e92915f9183610db55750508160011b915f199060031b1c19161790565b90555b518051600283019167ffffffffffffffff82116106f957610cc682610c6a85546111f1565b602090601f8311600114610dc05763ff0000009461065c9b9997947f2e5e748535fc9a789d82320fd660b21dc87ec6a7a456dc5b4c2042bce74fa45d9f9e9d9b99979480610d2f91610d49966003965f92610db55750508160011b915f199060031b1c19161790565b90555b0196511515879060ff801983541691151516179055565b51151564ff0000000062ff000087549651151560101b169251151560181b9451151560201b169461ff0064ff00000000199260081b169063ffffff001916171617911617179055610da76040519586956040875260408701916114df565b9184830360208601526114df565b015190505f80610c2e565b90601f19831691845f52815f20925f5b818110610e455750947f2e5e748535fc9a789d82320fd660b21dc87ec6a7a456dc5b4c2042bce74fa45d9f9e9d9b99979480610d499561065c9f9d9b989563ff0000009a9560019460039810610e2e575b505050811b019055610d32565b01515f1983881b60f8161c191690555f8080610e21565b92936020600181928786015181550195019301610dd0565b90601f19831691845f52815f20925f5b818110610ea85750908460019594939210610e90575b505050811b019055610ca1565b01515f1960f88460031b161c191690558f8080610e83565b92936020600181928786015181550195019301610e6d565b90601f19831691865f52815f20925f5b818110610f0b5750908460019594939210610ef3575b505050811b018355610c45565b01515f1960f88460031b161c191690558f8080610ee6565b92936020600181928786015181550195019301610ed0565b3461016857604036600319011261016857610166600435610f426113bd565b90610f5b61015c825f525f602052600160405f20015490565b611ac2565b34610168575f366003190112610168575f5f5b6008811015610fb05760ff6003610f8983611467565b015460201c16610f9c575b600101610f73565b90610fa86001916114ff565b919050610f94565b610fb982611539565b5f5f5b60088110156110025760ff6003610fd283611467565b015460201c16610fe5575b600101610fbc565b90610ffa6001916103be846103b9838861156b565b919050610fdd565b604051806102fb858261137b565b3461016857602036600319011261016857602061103a6004355f525f602052600160405f20015490565b604051908152f35b346101685760403660031901126101685760043560243567ffffffffffffffff81116101685761107690369060040161132c565b91906110806119df565b61108b821515611494565b82156110d1576110cc7fc20e9f7ddc999e04088c7250d962c1222b789733fd08238e5daff3bea8184ee19160405191829160208352339660208401916114df565b0390a3005b606460405162461bcd60e51b815260206004820152600f60248201527f526561736f6e20726571756972656400000000000000000000000000000000006044820152fd5b34610168576020366003190112610168576004355f5260046020526102fb61113f60405f20611268565b604051918291602083526020830190611308565b3461016857602036600319011261016857600435907fffffffff00000000000000000000000000000000000000000000000000000000821680920361016857817f7965db0b00000000000000000000000000000000000000000000000000000000602093149081156111c7575b5015158152f35b7f01ffc9a700000000000000000000000000000000000000000000000000000000915014836111c0565b90600182811c9216801561121f575b602083101461120b57565b634e487b7160e01b5f52602260045260245ffd5b91607f1691611200565b610100810190811067ffffffffffffffff8211176106f957604052565b90601f8019910116810190811067ffffffffffffffff8211176106f957604052565b9060405191825f82549261127b846111f1565b80845293600181169081156112e657506001146112a2575b506112a092500383611246565b565b90505f9291925260205f20905f915b8183106112ca5750509060206112a0928201015f611293565b60209193508060019154838589010152019101909184926112b1565b9050602092506112a094915060ff191682840152151560051b8201015f611293565b805180835260209291819084018484015e5f828201840152601f01601f1916010190565b9181601f840112156101685782359167ffffffffffffffff8311610168576020838186019501011161016857565b9060088210156113675752565b634e487b7160e01b5f52602160045260245ffd5b60206040818301928281528451809452019201905f5b81811061139e5750505090565b909192602080826113b2600194885161135a565b019401929101611391565b602435906001600160a01b038216820361016857565b600435906001600160a01b038216820361016857565b9060e08061142c61141a61140886516101008752610100870190611308565b60208701518682036020880152611308565b60408601518582036040870152611308565b9360608101511515606085015260808101511515608085015260a0810151151560a085015260c0810151151560c08501520151151591015290565b6008811015611367575f52600260205260405f2090565b906008811015611367575f5260205260405f2090565b1561149b57565b606460405162461bcd60e51b815260206004820152601460248201527f496e76616c6964207265636f7264696e672049440000000000000000000000006044820152fd5b908060209392818452848401375f828201840152601f01601f1916010190565b5f19811461150d5760010190565b634e487b7160e01b5f52601160045260245ffd5b67ffffffffffffffff81116106f95760051b60200190565b9061154382611521565b6115506040519182611246565b8281528092611561601f1991611521565b0190602036910137565b805182101561157f5760209160051b010190565b634e487b7160e01b5f52603260045260245ffd5b60088210156113675752565b92919267ffffffffffffffff82116106f957604051916115c9601f8201601f191660200184611246565b829481845281830111610168578281602093845f960137010152565b601f82116115f257505050565b5f5260205f20906020601f840160051c8301931061162a575b601f0160051c01905b81811061161f575050565b5f8155600101611614565b909150819061160b565b6040519061164182611229565b5f60e0836060815260606020820152606060408201528260608201528260808201528260a08201528260c08201520152565b60609061167f81611467565b9260036040519461168f86611229565b61169881611268565b86526116a660018201611268565b60208701526116b760028201611268565b604087015201548385019360ff821615158552608086019560ff8360081c161515875260e060ff60a0830194818160101c1615158652818160181c16151560c085015260201c16151591015261170c83611467565b9560036040519761171c89611229565b61172581611268565b895261173360018201611268565b60208a015261174460028201611268565b60408a015201549660e060ff8483019981811615158b52818160081c1615156080850152818160101c16151560a0850152818160181c16151560c085015260201c161515910152511561192b5750511515918261190d575b50506118825751159081611877575b506117ee576001906040516117c1604082611246565b601781527f4c6963656e7365732061726520636f6d70617469626c65000000000000000000602082015290565b5f906040516117fe608082611246565b604781527f4f726967696e616c206c6963656e7365206973206e6f6e2d636f6d6d6572636960208201527f616c20627574206465726976617469766520616c6c6f777320636f6d6d65726360408201527f69616c2075736500000000000000000000000000000000000000000000000000606082015290565b90505115155f6117ab565b50505f90604051611894608082611246565b604781527f4f726967696e616c206c6963656e73652072657175697265732053686172654160208201527f6c696b65202d2064657269766174697665206d757374207573652073616d652060408201527f6c6963656e736500000000000000000000000000000000000000000000000000606082015290565b90915060088210156113675760088110156113675714155f8061179c565b959450505050505f916119416040519182611246565b602b81527f4f726967696e616c206c6963656e736520646f6573206e6f7420616c6c6f772060208201527f6465726976617469766573000000000000000000000000000000000000000000604082015290565b1561199b57565b606460405162461bcd60e51b815260206004820152601760248201527f4c6963656e73652074797065206e6f74206163746976650000000000000000006044820152fd5b60ff600154166119eb57565b7fd93c0665000000000000000000000000000000000000000000000000000000005f5260045ffd5b335f9081527f7d7ffb7a348e1c6a02869081a26547b49160dd3df72d1d75a570eb9b698292ec602052604090205460ff1615611a4b57565b63e2517d3f60e01b5f52336004527fa49807205ce4d355092ef5a8a18f56e8913cf4a201fbe287825b095693c2177560245260445ffd5b805f525f60205260405f206001600160a01b0333165f5260205260ff60405f20541615611aac5750565b63e2517d3f60e01b5f523360045260245260445ffd5b805f525f60205260405f206001600160a01b0383165f5260205260ff60405f205416155f14611b4957805f525f60205260405f206001600160a01b0383165f5260205260405f20600160ff198254161790556001600160a01b03339216907f2f8788117e7eff1d82e926ec794901d17c78024a50270940304540a733656f0d5f80a4600190565b50505f90565b805f525f60205260405f206001600160a01b0383165f5260205260ff60405f2054165f14611b4957805f525f60205260405f206001600160a01b0383165f5260205260405f2060ff1981541690556001600160a01b03339216907ff6391f5c32d9c69d2a47ea670b442974b53935d1edc7fd64eb21e047a839171b5f80a460019056fea2646970667358221220fe9411b3704935c375284d331b7f1152fe271f119dacd05609ca694a12e7108864736f6c634300081e00332f8788117e7eff1d82e926ec794901d17c78024a50270940304540a733656f0d7d7ffb7a348e1c6a02869081a26547b49160dd3df72d1d75a570eb9b698292ec437265617469766520436f6d6d6f6e73204174747269627574696f6e2d4e6f6e5065726d69747320616c6d6f737420616e7920757365207375626a656374207468747470733a2f2f6372656174697665636f6d6d6f6e732e6f72672f6c6963656f2070726f766964696e672063726564697420616e64206c6963656e7365206e5065726d6974732075736520616e6420646572697661746976657320666f7220ad3228b676f7d3cd4284a5443f17f1962b36e491b30a40b2405849e597ba5fb5","linkReferences":{}},"methodIdentifiers":{"ADMIN_ROLE()":"75b238fc","DEFAULT_ADMIN_ROLE()":"a217fddf","checkLicenseCompatibility(uint8,uint8)":"71e9f151","getAllActiveLicenses()":"2530a0a3","getLicenseInfo(uint8)":"c95749a9","getRecordingLicense(uint256)":"3ef600ff","getRoleAdmin(bytes32)":"248a9ca3","getUserLicensePreferences(address)":"c911ce1a","grantRole(bytes32,address)":"2f2ff15d","hasRole(bytes32,address)":"91d14854","licenses(uint8)":"cb41b184","pause()":"8456cb59","paused()":"5c975abb","recordingAttributions(uint256)":"10723061","recordingLicenses(uint256)":"8e1fca42","renounceRole(bytes32,address)":"36568abe","reportLicenseViolation(uint256,string)":"15dd0ec1","revokeRole(bytes32,address)":"d547741f","setRecordingLicense(uint256,uint8,string)":"88192e36","setUserLicensePreference(uint8,bool)":"be1a24f6","supportsInterface(bytes4)":"01ffc9a7","unpause()":"3f4ba83a","updateLicense(uint8,string,string,string,bool,bool,bool,bool,bool)":"356bc1a8","userLicensePreferences(address,uint8)":"3fe4d3d0"},"id":30}