{"abi":[{"type":"constructor","inputs":[{"name":"_userManager","type":"address","internalType":"address"},{"name":"_recordingManager","type":"address","internalType":"address"},{"name":"_votingSystem","type":"address","internalType":"address"},{"name":"_licenseManager","type":"address","internalType":"address"}],"stateMutability":"nonpayable"},{"type":"function","name":"ADMIN_ROLE","inputs":[],"outputs":[{"name":"","type":"bytes32","internalType":"bytes32"}],"stateMutability":"view"},{"type":"function","name":"BATCH_SIZE_LIMIT","inputs":[],"outputs":[{"name":"","type":"uint256","internalType":"uint256"}],"stateMutability":"view"},{"type":"function","name":"DEFAULT_ADMIN_ROLE","inputs":[],"outputs":[{"name":"","type":"bytes32","internalType":"bytes32"}],"stateMutability":"view"},{"type":"function","name":"GAS_LIMIT_PER_OPERATION","inputs":[],"outputs":[{"name":"","type":"uint256","internalType":"uint256"}],"stateMutability":"view"},{"type":"function","name":"MODERATOR_ROLE","inputs":[],"outputs":[{"name":"","type":"bytes32","internalType":"bytes32"}],"stateMutability":"view"},{"type":"function","name":"batchRateRecordings","inputs":[{"name":"_recordingIds","type":"uint256[]","internalType":"uint256[]"},{"name":"_scores","type":"uint8[]","internalType":"uint8[]"}],"outputs":[],"stateMutability":"nonpayable"},{"type":"function","name":"batchSetRecordingLicenses","inputs":[{"name":"_recordingIds","type":"uint256[]","internalType":"uint256[]"},{"name":"_licenseTypes","type":"uint8[]","internalType":"enum LicenseManager.LicenseType[]"},{"name":"_attributions","type":"string[]","internalType":"string[]"}],"outputs":[],"stateMutability":"nonpayable"},{"type":"function","name":"batchVoteOnRecordings","inputs":[{"name":"_recordingIds","type":"uint256[]","internalType":"uint256[]"},{"name":"_isUpvotes","type":"bool[]","internalType":"bool[]"}],"outputs":[],"stateMutability":"nonpayable"},{"type":"function","name":"emergencyPause","inputs":[],"outputs":[],"stateMutability":"nonpayable"},{"type":"function","name":"emergencyUnpause","inputs":[],"outputs":[],"stateMutability":"nonpayable"},{"type":"function","name":"getRecordingWithAllData","inputs":[{"name":"_recordingId","type":"uint256","internalType":"uint256"}],"outputs":[{"name":"core","type":"tuple","internalType":"struct RecordingManager.RecordingCore","components":[{"name":"id","type":"uint256","internalType":"uint256"},{"name":"creator","type":"address","internalType":"address"},{"name":"ipfsHash","type":"string","internalType":"string"},{"name":"latitude","type":"int256","internalType":"int256"},{"name":"longitude","type":"int256","internalType":"int256"},{"name":"timestamp","type":"uint256","internalType":"uint256"},{"name":"isActive","type":"bool","internalType":"bool"}]},{"name":"metadata","type":"tuple","internalType":"struct RecordingManager.RecordingMetadata","components":[{"name":"title","type":"string","internalType":"string"},{"name":"description","type":"string","internalType":"string"},{"name":"tags","type":"string[]","internalType":"string[]"},{"name":"duration","type":"uint256","internalType":"uint256"},{"name":"quality","type":"uint8","internalType":"enum RecordingManager.AudioQuality"},{"name":"equipment","type":"string","internalType":"string"},{"name":"license","type":"uint8","internalType":"enum LicenseManager.LicenseType"},{"name":"status","type":"uint8","internalType":"enum RecordingManager.ModerationStatus"}]},{"name":"stats","type":"tuple","internalType":"struct RecordingManager.RecordingStats","components":[{"name":"upvotes","type":"uint256","internalType":"uint256"},{"name":"downvotes","type":"uint256","internalType":"uint256"},{"name":"totalRating","type":"uint256","internalType":"uint256"},{"name":"ratingCount","type":"uint256","internalType":"uint256"}]},{"name":"upvotes","type":"uint256","internalType":"uint256"},{"name":"downvotes","type":"uint256","internalType":"uint256"},{"name":"averageRating","type":"uint256","internalType":"uint256"},{"name":"ratingCount","type":"uint256","internalType":"uint256"},{"name":"licenseType","type":"uint8","internalType":"enum LicenseManager.LicenseType"},{"name":"attribution","type":"string","internalType":"string"}],"stateMutability":"view"},{"type":"function","name":"getRecordingsByLocationOptimized","inputs":[{"name":"_minLat","type":"int256","internalType":"int256"},{"name":"_maxLat","type":"int256","internalType":"int256"},{"name":"_minLng","type":"int256","internalType":"int256"},{"name":"_maxLng","type":"int256","internalType":"int256"},{"name":"_offset","type":"uint256","internalType":"uint256"},{"name":"_limit","type":"uint256","internalType":"uint256"}],"outputs":[{"name":"recordingIds","type":"uint256[]","internalType":"uint256[]"},{"name":"cores","type":"tuple[]","internalType":"struct RecordingManager.RecordingCore[]","components":[{"name":"id","type":"uint256","internalType":"uint256"},{"name":"creator","type":"address","internalType":"address"},{"name":"ipfsHash","type":"string","internalType":"string"},{"name":"latitude","type":"int256","internalType":"int256"},{"name":"longitude","type":"int256","internalType":"int256"},{"name":"timestamp","type":"uint256","internalType":"uint256"},{"name":"isActive","type":"bool","internalType":"bool"}]},{"name":"upvotes","type":"uint256[]","internalType":"uint256[]"},{"name":"averageRatings","type":"uint256[]","internalType":"uint256[]"}],"stateMutability":"view"},{"type":"function","name":"getRoleAdmin","inputs":[{"name":"role","type":"bytes32","internalType":"bytes32"}],"outputs":[{"name":"","type":"bytes32","internalType":"bytes32"}],"stateMutability":"view"},{"type":"function","name":"getSystemStats","inputs":[],"outputs":[{"name":"totalUsers","type":"uint256","internalType":"uint256"},{"name":"totalRecordings","type":"uint256","internalType":"uint256"},{"name":"totalVotes","type":"uint256","internalType":"uint256"},{"name":"totalRatings","type":"uint256","internalType":"uint256"},{"name":"totalModerationActions","type":"uint256","internalType":"uint256"}],"stateMutability":"view"},{"type":"function","name":"getUserDashboard","inputs":[{"name":"_user","type":"address","internalType":"address"}],"outputs":[{"name":"userInfo","type":"tuple","internalType":"struct San2SticMap.User","components":[{"name":"id","type":"uint256","internalType":"uint256"},{"name":"walletAddress","type":"address","internalType":"address"},{"name":"username","type":"string","internalType":"string"},{"name":"totalRecordings","type":"uint256","internalType":"uint256"},{"name":"totalVotes","type":"uint256","internalType":"uint256"},{"name":"reputation","type":"uint256","internalType":"uint256"},{"name":"isActive","type":"bool","internalType":"bool"},{"name":"registrationTimestamp","type":"uint256","internalType":"uint256"}]},{"name":"userRecordings","type":"uint256[]","internalType":"uint256[]"},{"name":"totalUpvotes","type":"uint256","internalType":"uint256"},{"name":"totalRatings","type":"uint256","internalType":"uint256"},{"name":"preferredLicenses","type":"uint8[]","internalType":"enum LicenseManager.LicenseType[]"}],"stateMutability":"view"},{"type":"function","name":"grantModeratorRoleAcrossContracts","inputs":[{"name":"_moderator","type":"address","internalType":"address"}],"outputs":[],"stateMutability":"nonpayable"},{"type":"function","name":"grantRole","inputs":[{"name":"role","type":"bytes32","internalType":"bytes32"},{"name":"account","type":"address","internalType":"address"}],"outputs":[],"stateMutability":"nonpayable"},{"type":"function","name":"hasRole","inputs":[{"name":"role","type":"bytes32","internalType":"bytes32"},{"name":"account","type":"address","internalType":"address"}],"outputs":[{"name":"","type":"bool","internalType":"bool"}],"stateMutability":"view"},{"type":"function","name":"licenseManager","inputs":[],"outputs":[{"name":"","type":"address","internalType":"contract LicenseManager"}],"stateMutability":"view"},{"type":"function","name":"paused","inputs":[],"outputs":[{"name":"","type":"bool","internalType":"bool"}],"stateMutability":"view"},{"type":"function","name":"recordingManager","inputs":[],"outputs":[{"name":"","type":"address","internalType":"contract RecordingManager"}],"stateMutability":"view"},{"type":"function","name":"registerUserAndAddRecording","inputs":[{"name":"_username","type":"string","internalType":"string"},{"name":"_title","type":"string","internalType":"string"},{"name":"_description","type":"string","internalType":"string"},{"name":"_ipfsHash","type":"string","internalType":"string"},{"name":"_latitude","type":"int256","internalType":"int256"},{"name":"_longitude","type":"int256","internalType":"int256"},{"name":"_tags","type":"string[]","internalType":"string[]"},{"name":"_duration","type":"uint256","internalType":"uint256"},{"name":"_quality","type":"uint8","internalType":"enum RecordingManager.AudioQuality"},{"name":"_equipment","type":"string","internalType":"string"},{"name":"_license","type":"uint8","internalType":"enum LicenseManager.LicenseType"}],"outputs":[],"stateMutability":"nonpayable"},{"type":"function","name":"renounceRole","inputs":[{"name":"role","type":"bytes32","internalType":"bytes32"},{"name":"callerConfirmation","type":"address","internalType":"address"}],"outputs":[],"stateMutability":"nonpayable"},{"type":"function","name":"revokeModeratorRoleAcrossContracts","inputs":[{"name":"_moderator","type":"address","internalType":"address"}],"outputs":[],"stateMutability":"nonpayable"},{"type":"function","name":"revokeRole","inputs":[{"name":"role","type":"bytes32","internalType":"bytes32"},{"name":"account","type":"address","internalType":"address"}],"outputs":[],"stateMutability":"nonpayable"},{"type":"function","name":"supportsInterface","inputs":[{"name":"interfaceId","type":"bytes4","internalType":"bytes4"}],"outputs":[{"name":"","type":"bool","internalType":"bool"}],"stateMutability":"view"},{"type":"function","name":"userManager","inputs":[],"outputs":[{"name":"","type":"address","internalType":"contract San2SticMap"}],"stateMutability":"view"},{"type":"function","name":"votingSystem","inputs":[],"outputs":[{"name":"","type":"address","internalType":"contract VotingSystem"}],"stateMutability":"view"},{"type":"event","name":"BatchOperationCompleted","inputs":[{"name":"operationType","type":"string","indexed":false,"internalType":"string"},{"name":"successCount","type":"uint256","indexed":false,"internalType":"uint256"},{"name":"totalCount","type":"uint256","indexed":false,"internalType":"uint256"},{"name":"gasUsed","type":"uint256","indexed":false,"internalType":"uint256"}],"anonymous":false},{"type":"event","name":"ContractsDeployed","inputs":[{"name":"userManager","type":"address","indexed":false,"internalType":"address"},{"name":"recordingManager","type":"address","indexed":false,"internalType":"address"},{"name":"votingSystem","type":"address","indexed":false,"internalType":"address"},{"name":"licenseManager","type":"address","indexed":false,"internalType":"address"}],"anonymous":false},{"type":"event","name":"Paused","inputs":[{"name":"account","type":"address","indexed":false,"internalType":"address"}],"anonymous":false},{"type":"event","name":"RoleAdminChanged","inputs":[{"name":"role","type":"bytes32","indexed":true,"internalType":"bytes32"},{"name":"previousAdminRole","type":"bytes32","indexed":true,"internalType":"bytes32"},{"name":"newAdminRole","type":"bytes32","indexed":true,"internalType":"bytes32"}],"anonymous":false},{"type":"event","name":"RoleGranted","inputs":[{"name":"role","type":"bytes32","indexed":true,"internalType":"bytes32"},{"name":"account","type":"address","indexed":true,"internalType":"address"},{"name":"sender","type":"address","indexed":true,"internalType":"address"}],"anonymous":false},{"type":"event","name":"RoleRevoked","inputs":[{"name":"role","type":"bytes32","indexed":true,"internalType":"bytes32"},{"name":"account","type":"address","indexed":true,"internalType":"address"},{"name":"sender","type":"address","indexed":true,"internalType":"address"}],"anonymous":false},{"type":"event","name":"Unpaused","inputs":[{"name":"account","type":"address","indexed":false,"internalType":"address"}],"anonymous":false},{"type":"error","name":"AccessControlBadConfirmation","inputs":[]},{"type":"error","name":"AccessControlUnauthorizedAccount","inputs":[{"name":"account","type":"address","internalType":"address"},{"name":"neededRole","type":"bytes32","internalType":"bytes32"}]},{"type":"error","name":"EnforcedPause","inputs":[]},{"type":"error","name":"ExpectedPause","inputs":[]},{"type":"error","name":"ReentrancyGuardReentrantCall","inputs":[]}],"bytecode":{"object":"0x6101003461034a57601f613ad938819003918201601f19168301916001600160401b0383118484101761034e5780849260809460405283398101031261034a5761004881610362565b9061005560208201610362565b61006d606061006660408501610362565b9301610362565b60018055926001600160a01b0316908115610305576001600160a01b03169182156102b6576001600160a01b0316928315610271576001600160a01b0316801561022c577f4b75aa1a13a160f48feea5d6d4f23760de2ae3e26f90d390b095aa4faa485485936080938385528060a0528160c0528260e0526100ee33610376565b506100f8336103ec565b506101023361047f565b50604051938452602084015260408301526060820152a1604051613546908161051382396080518181816101b701528181610838015281816109aa01528181610e25015281816111ea01528181611a3101528181611ab60152611c8f015260a05181818161037b0152818161072b01528181610a1201528181610e84015281816113c00152818161165301528181611b0b01528181611ce401528181611e78015281816122000152612462015260c0518181816103be015281816108b801528181610a4d01528181610c880152818161126a015281816117a201528181611b6001528181611d3901528181611f910152818161226a01526124a0015260e051818181610513015281816114d401528181611bb501528181611d8e015281816125580152612ae30152f35b60405162461bcd60e51b815260206004820152601f60248201527f496e76616c6964206c6963656e7365206d616e616765722061646472657373006044820152606490fd5b60405162461bcd60e51b815260206004820152601d60248201527f496e76616c696420766f74696e672073797374656d20616464726573730000006044820152606490fd5b60405162461bcd60e51b815260206004820152602160248201527f496e76616c6964207265636f7264696e67206d616e61676572206164647265736044820152607360f81b6064820152608490fd5b60405162461bcd60e51b815260206004820152601c60248201527f496e76616c69642075736572206d616e616765722061646472657373000000006044820152606490fd5b5f80fd5b634e487b7160e01b5f52604160045260245ffd5b51906001600160a01b038216820361034a57565b6001600160a01b0381165f9081525f516020613ab95f395f51905f52602052604090205460ff166103e7576001600160a01b03165f8181525f516020613ab95f395f51905f5260205260408120805460ff191660011790553391905f516020613a595f395f51905f528180a4600190565b505f90565b6001600160a01b0381165f9081525f516020613a795f395f51905f52602052604090205460ff166103e7576001600160a01b03165f8181525f516020613a795f395f51905f5260205260408120805460ff191660011790553391907fa49807205ce4d355092ef5a8a18f56e8913cf4a201fbe287825b095693c21775905f516020613a595f395f51905f529080a4600190565b6001600160a01b0381165f9081525f516020613a995f395f51905f52602052604090205460ff166103e7576001600160a01b03165f8181525f516020613a995f395f51905f5260205260408120805460ff191660011790553391907f71f3d55856e4058ed06ee057d79ada615f65cdf5f9ee88181b914225088f834f905f516020613a595f395f51905f529080a460019056fe6080806040526004361015610012575f80fd5b5f3560e01c90816301ffc9a714612b07575080630ad5114414612ac4578063248a9ca314612a9257806328b6839d146123af5780632f2ff15d14612372578063355fc482146120e057806336568abe14612083578063389ea61314611e315780634a4e3bd514611c3057806351858e2714611a555780635c8a768714611a125780635c975abb146119f057806375b238fc146119b6578063797669c91461197c57806379bcac68146116385780637c7353a71461130c5780637ddd21a8146111625780638afee96f14610d0f57806391d1485414610cc6578063a217fddf14610cac578063a4fcfbd814610c69578063ad59db6514610c4e578063d1ce59a714610964578063d4182cf4146107b0578063d547741f1461076c578063e0cd50471461074f578063e9e49a141461070c5763faaf807614610150575f80fd5b346105eb5760203660031901126105eb57610169612c67565b60405161017581612d61565b5f81525f6020820152606060408201525f60608201525f60808201525f60a08201525f60c08201525f60e0820152906060915f905f9084936001600160a01b037f0000000000000000000000000000000000000000000000000000000000000000166001600160a01b0360405192630b1fba9160e11b84521691826004820152602081602481855afa9081156104a5575f916106d2575b506102f2575b50509392919061029f60405195869560a08752815160a08801526001600160a01b0360208301511660c088015260e061025b6040840151610100838b01526101a08a0190612ba5565b9260608101516101008a015260808101516101208a015260a08101516101408a015260c081015115156101608a015201516101808801528682036020880152612d00565b91604085015260608401528281036080840152602080835192838152019201905f5b8181106102cf575050500390f35b91935091602080826102e46001948851612c44565b0194019101918493926102c1565b5f91949550602493969250604051938480927f6f77926b0000000000000000000000000000000000000000000000000000000082528760048301525afa9182156104a5575f92610611575b5050916040517f044603540000000000000000000000000000000000000000000000000000000081528260048201525f816024816001600160a01b037f0000000000000000000000000000000000000000000000000000000000000000165afa9081156104a5575f916105ef575b508094919293945f956001600160a01b037f000000000000000000000000000000000000000000000000000000000000000016945b83518810156104d1576103f38885613108565b519060405191632b52d9fd60e21b835260048301526040826024818a5afa9081156104a557610429925f926104b0575b5061313c565b936104348885613108565b5160405190639e4c18db60e01b825260048201526040816024818a5afa80156104a55760019261046a925f92610473575061313c565b970196936103e0565b61049591925060403d811161049e575b61048d8183612dca565b810190612f3a565b9050905f610423565b503d610483565b6040513d5f823e3d90fd5b6104c991925060403d811161049e5761048d8183612dca565b50905f610423565b94509491509450604051907fc911ce1a00000000000000000000000000000000000000000000000000000000825260048201525f816024816001600160a01b037f0000000000000000000000000000000000000000000000000000000000000000165afa80156104a5575f9061054e575b93905061029f5f610212565b503d805f833e61055e8183612dca565b8101906020818303126105eb5780519067ffffffffffffffff82116105eb57019080601f830112156105eb5781519061059682612f22565b926105a46040519485612dca565b82845260208085019360051b8201019182116105eb57602001915b8183106105d25750505061029f90610542565b825160088110156105eb578152602092830192016105bf565b5f80fd5b61060b91503d805f833e6106038183612dca565b81019061305c565b5f6103ab565b9091503d805f833e6106238183612dca565b8101906020818303126105eb5780519067ffffffffffffffff82116105eb5701610100818303126105eb576040519261065b84612d61565b8151845261066b60208301612e23565b6020850152604082015167ffffffffffffffff81116105eb5760e093610692918401612e37565b604085015280820151908401526080810151608084015260a081015160a08401526106bf60c08201612e8d565b60c0840152015160e08201525f8061033d565b90506020813d602011610704575b816106ed60209383612dca565b810103126105eb576106fe90612e8d565b5f61020c565b3d91506106e0565b346105eb575f3660031901126105eb5760206040516001600160a01b037f0000000000000000000000000000000000000000000000000000000000000000168152f35b346105eb575f3660031901126105eb576020604051620186a08152f35b346105eb5760403660031901126105eb576107ae60043561078b612c51565b906107a96107a4825f525f602052600160405f20015490565b6131b8565b61348d565b005b346105eb5760203660031901126105eb576107c9612c67565b6107d1613149565b7f71f3d55856e4058ed06ee057d79ada615f65cdf5f9ee88181b914225088f834f5f9081526020527ff179aafcc4ff8137fca1ef3b9ec4d165f87016ba123e7973fba770bc55e240e454610824906131b8565b61082d816133c3565b506001600160a01b037f00000000000000000000000000000000000000000000000000000000000000001690813b156105eb575f6001600160a01b036024829360405194859384927f92b908b200000000000000000000000000000000000000000000000000000000845216968760048401525af180156104a557610954575b506001600160a01b037f00000000000000000000000000000000000000000000000000000000000000001690813b156105eb575f916044839260405194859384927fd547741f0000000000000000000000000000000000000000000000000000000084527f71f3d55856e4058ed06ee057d79ada615f65cdf5f9ee88181b914225088f834f600485015260248401525af180156104a55761094a57005b5f6107ae91612dca565b5f61095e91612dca565b816108ad565b346105eb575f3660031901126105eb576040517f9be572f60000000000000000000000000000000000000000000000000000000081526020816004816001600160a01b037f0000000000000000000000000000000000000000000000000000000000000000165afa9081156104a5575f91610c1c575b50604051907fc37e73a70000000000000000000000000000000000000000000000000000000082526020826004816001600160a01b037f0000000000000000000000000000000000000000000000000000000000000000165afa9182156104a5575f92610be8575b506001600160a01b037f000000000000000000000000000000000000000000000000000000000000000016916040517f9a0e7d66000000000000000000000000000000000000000000000000000000008152602081600481875afa9081156104a5575f91610bb6575b50604051907fe223e314000000000000000000000000000000000000000000000000000000008252602082600481885afa9182156104a5575f92610b7f575b506020600495604051968780927fdb617dd40000000000000000000000000000000000000000000000000000000082525afa9283156104a5575f93610b4a575b60a095506040519485526020850152604084015260608301526080820152f35b92506020853d602011610b77575b81610b6560209383612dca565b810103126105eb5760a0945192610b2a565b3d9150610b58565b9491506020853d602011610bae575b81610b9b60209383612dca565b810103126105eb57935190936020610aea565b3d9150610b8e565b90506020813d602011610be0575b81610bd160209383612dca565b810103126105eb575184610aab565b3d9150610bc4565b9091506020813d602011610c14575b81610c0460209383612dca565b810103126105eb57519082610a42565b3d9150610bf7565b90506020813d602011610c46575b81610c3760209383612dca565b810103126105eb5751816109da565b3d9150610c2a565b346105eb575f3660031901126105eb57602060405160328152f35b346105eb575f3660031901126105eb5760206040516001600160a01b037f0000000000000000000000000000000000000000000000000000000000000000168152f35b346105eb575f3660031901126105eb5760206040515f8152f35b346105eb5760403660031901126105eb57610cdf612c51565b6004355f525f6020526001600160a01b0360405f2091165f52602052602060ff60405f2054166040519015158152f35b346105eb576101603660031901126105eb5760043567ffffffffffffffff81116105eb57610d41903690600401612d33565b9060243567ffffffffffffffff81116105eb57610d62903690600401612d33565b9160443567ffffffffffffffff81116105eb57610d83903690600401612d33565b9060643567ffffffffffffffff81116105eb57610da4903690600401612d33565b60c49391933567ffffffffffffffff81116105eb57610dc7903690600401612c7d565b9094610104359260048410156105eb576101243567ffffffffffffffff81116105eb57610df8903690600401612d33565b969095610144359960088b10156105eb57610e11613356565b610e1961338a565b5a9d6001600160a01b037f00000000000000000000000000000000000000000000000000000000000000001691604051630b1fba9160e11b8152336004820152602081602481875afa9081156104a5575f91611128575b50156110b7575b5050506001600160a01b037f0000000000000000000000000000000000000000000000000000000000000000169a8b3b156105eb576040517f6a8a5b2c00000000000000000000000000000000000000000000000000000000815261014060048201529c8d9b9a96999897969594939291610ef7916101448e019161311c565b906003198c83030160248d0152610f0d9261311c565b906003198a83030160448b0152610f239261311c565b94608435606489015260a43560848901526003198887030160a489015280865260208601908060051b870160200196835f91601e1982360301905b848410611050575050505050505093610fb1610fa587955f99979587958b9760e43560c4890152610f8e81612c26565b60e48801528683036003190161010488015261311c565b91610124840190612c44565b03925af180156104a5577fe9f49535e87ab70f1355152361b15471efe172bb35db1de450109e677cacde479260c092610ff192611040575b505a9061304f565b6040519060808252601160808301527f7265676973746572416e645265636f726400000000000000000000000000000060a083015260016020830152600160408301526060820152a160018055005b5f61104a91612dca565b84610fe9565b9193959a9b50919395969798601f198282030187528a35838112156105eb578401906020823592019167ffffffffffffffff81116105eb5780360383136105eb576110a1602092839260019561311c565b9c0197019401918d9b9a99989796959391610f5e565b823b156105eb57611102925f92836040518096819582947f704f1b9400000000000000000000000000000000000000000000000000000000845260206004850152602484019161311c565b03925af180156104a557611118575b8080610e77565b5f61112291612dca565b8d611111565b90506020813d60201161115a575b8161114360209383612dca565b810103126105eb5761115490612e8d565b5f610e70565b3d9150611136565b346105eb5760203660031901126105eb5761117b612c67565b611183613149565b7f71f3d55856e4058ed06ee057d79ada615f65cdf5f9ee88181b914225088f834f5f9081526020527ff179aafcc4ff8137fca1ef3b9ec4d165f87016ba123e7973fba770bc55e240e4546111d6906131b8565b6111df816131f8565b506001600160a01b037f00000000000000000000000000000000000000000000000000000000000000001690813b156105eb575f6001600160a01b036024829360405194859384927faa232dc200000000000000000000000000000000000000000000000000000000845216968760048401525af180156104a5576112fc575b506001600160a01b037f00000000000000000000000000000000000000000000000000000000000000001690813b156105eb575f916044839260405194859384927f2f2ff15d0000000000000000000000000000000000000000000000000000000084527f71f3d55856e4058ed06ee057d79ada615f65cdf5f9ee88181b914225088f834f600485015260248401525af180156104a55761094a57005b5f61130691612dca565b8161125f565b346105eb5760603660031901126105eb5760043567ffffffffffffffff81116105eb5761133d903690600401612c7d565b60243567ffffffffffffffff81116105eb5761135d903690600401612c7d565b9260443567ffffffffffffffff81116105eb5761137e903690600401612c7d565b611389959195613356565b61139161338a565b8185148061162f575b6113a390612f50565b6113b06032861115612f9b565b5a935f965f936001600160a01b037f000000000000000000000000000000000000000000000000000000000000000016945b888110611465577fe9f49535e87ab70f1355152361b15471efe172bb35db1de450109e677cacde4760c08b8b6114198c5a9061304f565b906040519260808452600c60808501527f62617463684c6963656e7365000000000000000000000000000000000000000060a0850152602084015260408301526060820152a160018055005b611470818a89612fe6565b3560405190633ee8684b60e01b825260048201525f816024818a5afa5f918161160b575b506114a457506001905b016113e2565b6001600160a01b03602082015116331490816115fd575b506114c9575b60019061149e565b986001600160a01b037f000000000000000000000000000000000000000000000000000000000000000016906115008b8b8a612fe6565b3561150c8c8588612fe6565b359060088210156105eb57878d10156115e9578c60051b860135601e19873603018112156105eb5786019384359467ffffffffffffffff86116105eb576020019285360384136105eb57813b156105eb575f6115a3936115b48296604051998a97889687957f88192e3600000000000000000000000000000000000000000000000000000000875260048701526024860190612c44565b60606044850152606484019161311c565b03925af19081156104a5576001926115d1926115d9575b5061302d565b9990506114c1565b5f6115e391612dca565b8c6115cb565b634e487b7160e01b5f52603260045260245ffd5b60c09150015115158b6114bb565b6116289192503d805f833e6116208183612dca565b810190613004565b908c611494565b5081811461139a565b346105eb5760c03660031901126105eb576001600160a01b037f000000000000000000000000000000000000000000000000000000000000000016604051907f27ec4f680000000000000000000000000000000000000000000000000000000082526004356004830152602435602483015260443560448301526064356064830152608435608483015260a43560a48301525f8260c481845afa9182156104a5575f92611960575b5081516116ec81612f22565b906116fa6040519283612dca565b808252611709601f1991612f22565b015f5b81811061194957505061171f83516130d6565b61172984516130d6565b915f5b85518110156118a55761173f8187613108565b5161174d575b60010161172c565b6117578187613108565b5160405190633ee8684b60e01b825260048201525f81602481895afa9081156104a5575f9161188b575b5061178c8284613108565b526117978183613108565b506001600160a01b037f000000000000000000000000000000000000000000000000000000000000000016906117cd8188613108565b5160405190632b52d9fd60e21b82526004820152604081602481865afa9081156104a5575f9161186c575b506118038286613108565b5260406118108289613108565b516024825180958193639e4c18db60e01b835260048301525afa80156104a5576001925f9161184d575b506118458287613108565b529050611745565b611865915060403d811161049e5761048d8183612dca565b508861183a565b611884915060403d811161049e5761048d8183612dca565b50886117f8565b61189f91503d805f833e6116208183612dca565b87611781565b50906118c1949350604051948594608086526080860190612d00565b8481036020860152825180825260208201916020808360051b8301019501925f915b8383106119145788806119108a6119028b8b8582036040870152612d00565b908382036060850152612d00565b0390f35b9193969750919394602080611935600193601f198682030187528a51612bc9565b9801930193019092889796959492936118e3565b602090611954612dec565b8282860101520161170c565b6119759192503d805f833e6106038183612dca565b90826116e0565b346105eb575f3660031901126105eb5760206040517f71f3d55856e4058ed06ee057d79ada615f65cdf5f9ee88181b914225088f834f8152f35b346105eb575f3660031901126105eb5760206040517fa49807205ce4d355092ef5a8a18f56e8913cf4a201fbe287825b095693c217758152f35b346105eb575f3660031901126105eb57602060ff600254166040519015158152f35b346105eb575f3660031901126105eb5760206040516001600160a01b037f0000000000000000000000000000000000000000000000000000000000000000168152f35b346105eb575f3660031901126105eb57611a6d613149565b611a75613356565b600160ff1960025416176002557f62e78cea01bee320cd4e420270b5ea74000d11b0c9f74754ebdbfc544b05a2586020604051338152a16001600160a01b037f000000000000000000000000000000000000000000000000000000000000000016803b156105eb575f8091600460405180948193638456cb5960e01b83525af180156104a557611c20575b506001600160a01b037f000000000000000000000000000000000000000000000000000000000000000016803b156105eb575f8091600460405180948193638456cb5960e01b83525af180156104a557611c10575b506001600160a01b037f000000000000000000000000000000000000000000000000000000000000000016803b156105eb575f8091600460405180948193638456cb5960e01b83525af180156104a557611c00575b506001600160a01b037f000000000000000000000000000000000000000000000000000000000000000016803b156105eb575f8091600460405180948193638456cb5960e01b83525af180156104a55761094a57005b5f611c0a91612dca565b80611baa565b5f611c1a91612dca565b80611b55565b5f611c2a91612dca565b80611b00565b346105eb575f3660031901126105eb57611c48613149565b60025460ff811615611e095760ff19166002557f5db9ee0a495bf2e6ff9c91a7834c1ba4fdd244a5e8aa4e537bd38aeae4b073aa6020604051338152a16001600160a01b037f000000000000000000000000000000000000000000000000000000000000000016803b156105eb575f8091600460405180948193631fa5d41d60e11b83525af180156104a557611df9575b506001600160a01b037f000000000000000000000000000000000000000000000000000000000000000016803b156105eb575f8091600460405180948193631fa5d41d60e11b83525af180156104a557611de9575b506001600160a01b037f000000000000000000000000000000000000000000000000000000000000000016803b156105eb575f8091600460405180948193631fa5d41d60e11b83525af180156104a557611dd9575b506001600160a01b037f000000000000000000000000000000000000000000000000000000000000000016803b156105eb575f8091600460405180948193631fa5d41d60e11b83525af180156104a55761094a57005b5f611de391612dca565b80611d83565b5f611df391612dca565b80611d2e565b5f611e0391612dca565b80611cd9565b7f8dfc202b000000000000000000000000000000000000000000000000000000005f5260045ffd5b346105eb57611e3f36612cae565b9092611e49613356565b611e5161338a565b611e5c828414612f50565b611e696032841115612f9b565b5a915f945f6001600160a01b037f000000000000000000000000000000000000000000000000000000000000000016905b868110611f1d577fe9f49535e87ab70f1355152361b15471efe172bb35db1de450109e677cacde4760c08989611ed18a5a9061304f565b906040519260808452600960808501527f6261746368566f7465000000000000000000000000000000000000000000000060a0850152602084015260408301526060820152a160018055005b611f28818887612fe6565b3560405190633ee8684b60e01b825260048201525f81602481865afa5f9181612067575b50611f5c57506001905b01611e9a565b60208101906001600160a01b038251163314159081612059575b50611f85575b50600190611f56565b90976001600160a01b037f00000000000000000000000000000000000000000000000000000000000000001691611fbd8a8a89612fe6565b3590611fca8b8888612fe6565b35908115158092036105eb57516001600160a01b031693803b156105eb575f928360649260405197889586947ff59afbe90000000000000000000000000000000000000000000000000000000086526004860152602485015260448401525af19081156104a55760019261204292612049575061302d565b9790611f7c565b5f61205391612dca565b8a6115cb565b60c09150015115158a611f76565b61207c9192503d805f833e6116208183612dca565b908a611f4c565b346105eb5760403660031901126105eb5761209c612c51565b336001600160a01b038216036120b8576107ae9060043561348d565b7f6697b232000000000000000000000000000000000000000000000000000000005f5260045ffd5b346105eb576120ee36612cae565b906120fa939293613356565b61210261338a565b61210d828514612f50565b61211a6032851115612f9b565b5a915f935f5b8681106121a3577fe9f49535e87ab70f1355152361b15471efe172bb35db1de450109e677cacde4760c08789612157895a9061304f565b906040519260808452600960808501527f626174636852617465000000000000000000000000000000000000000000000060a0850152602084015260408301526060820152a160018055005b600160ff6121ba6121b5848789612fe6565b612ff6565b16101580612357575b6121d2575b6001905b01612120565b6121dd818884612fe6565b3560405190633ee8684b60e01b825260048201525f816024816001600160a01b037f0000000000000000000000000000000000000000000000000000000000000000165afa5f918161233b575b5061223857506001906121cc565b60208101906001600160a01b03825116331415908161232d575b5061225e575b506121c8565b90956001600160a01b037f000000000000000000000000000000000000000000000000000000000000000016612295888a86612fe6565b35926001600160a01b036122ad6121b58b898b612fe6565b91511691803b156105eb5760ff945f606492819560405198899687957ffa26165d000000000000000000000000000000000000000000000000000000008752600487015216602485015260448401525af19081156104a5576001926123169261231d575061302d565b9590612258565b5f61232791612dca565b896115cb565b60c091500151151589612252565b6123509192503d805f833e6116208183612dca565b908961222a565b50600560ff61236a6121b5848789612fe6565b1611156121c3565b346105eb5760403660031901126105eb576107ae600435612391612c51565b906123aa6107a4825f525f602052600160405f20015490565b6132c9565b346105eb5760203660031901126105eb576004356123cb612dec565b505f60e06040516123db81612d61565b606081526060602082015260606040820152826060820152826080820152606060a08201528260c082015201525f606060405161241781612d92565b82815282602082015282604082015201526040517ead1f540000000000000000000000000000000000000000000000000000000081528160048201525f816024816001600160a01b037f0000000000000000000000000000000000000000000000000000000000000000165afa80156104a5575f925f925f9261289b575b506001600160a01b037f00000000000000000000000000000000000000000000000000000000000000001660405190632b52d9fd60e21b8252826004830152604082602481845afa9081156104a5575f925f92612873575b50906040602492815193848092639e4c18db60e01b82528860048301525afa9283156104a5575f925f9461284c575b50604051947f3ef600ff00000000000000000000000000000000000000000000000000000000865260048601525f856024816001600160a01b037f0000000000000000000000000000000000000000000000000000000000000000165afa9586156104a5575f955f9761270b575b50906125ad9896949795939291604051998a986101808a526101808a0190612bc9565b88810360208a01526125df6125cd89516101008452610100840190612ba5565b60208a01518382036020850152612ba5565b6040890151908281036040840152815180825260208201916020808360051b8301019401925f915b8383106126c8575050505050611910999a94926126ba9796949260e08061265760609560a08f8881015189880152608081015161264381612c26565b6080880152015185820360a0870152612ba5565b9c61266a60c082015160c0860190612c44565b01519161267683612c26565b0152805160408d01526020810151828d0152604081015160808d0152015160a08b015260c08a015260e0890152610100880152610120870152610140860190612c44565b838203610160850152612ba5565b919395969798999a9c9e9b9d5091936020806126f0600193601f198682030187528951612ba5565b97019301930190928f9d9b9e9c9a9998979695949293612607565b955095503d805f873e61271e8187612dca565b85016060868203126105eb5785519060088210156105eb57602087015167ffffffffffffffff81116105eb5781612756918901612e37565b9660408101519067ffffffffffffffff82116105eb5701610100818303126105eb576040519161278583612d61565b815167ffffffffffffffff81116105eb57816127a2918401612e37565b8352602082015167ffffffffffffffff81116105eb57816127c4918401612e37565b602084015260408201519067ffffffffffffffff82116105eb57826127f260e0949261284194869401612e37565b604086015261280360608201612e8d565b606086015261281460808201612e8d565b608086015261282560a08201612e8d565b60a086015261283660c08201612e8d565b60c086015201612e8d565b91015294958961258a565b90935061286991925060403d60401161049e5761048d8183612dca565b919091928861251c565b604093506024925061289190843d861161049e5761048d8183612dca565b93909392506124ed565b92509250503d805f833e6128af8183612dca565b81019181830360c081126105eb57825167ffffffffffffffff81116105eb57846128da918501612e9a565b90602084015167ffffffffffffffff81116105eb578401610100818703126105eb576040519561290987612d61565b815167ffffffffffffffff81116105eb5781612926918401612e37565b8752602082015167ffffffffffffffff81116105eb5781612948918401612e37565b6020880152604082015167ffffffffffffffff81116105eb57820181601f820112156105eb57805161297981612f22565b916129876040519384612dca565b81835260208084019260051b820101918483116105eb5760208201905b838210612a645750505050604088015260608201516060880152608082015160048110156105eb57608088015260a08201519067ffffffffffffffff82116105eb576129f1918301612e37565b60a087015260c08101519060088210156105eb5760e09160c088015201519060048210156105eb5760809160e0870152603f1901126105eb5760a060405193612a3985612d92565b6040810151855260608101516020860152608081015160408601520151606084015292919084612495565b815167ffffffffffffffff81116105eb57602091612a8788848094880101612e37565b8152019101906129a4565b346105eb5760203660031901126105eb576020612abc6004355f525f602052600160405f20015490565b604051908152f35b346105eb575f3660031901126105eb5760206040516001600160a01b037f0000000000000000000000000000000000000000000000000000000000000000168152f35b346105eb5760203660031901126105eb57600435907fffffffff0000000000000000000000000000000000000000000000000000000082168092036105eb57817f7965db0b0000000000000000000000000000000000000000000000000000000060209314908115612b7b575b5015158152f35b7f01ffc9a70000000000000000000000000000000000000000000000000000000091501483612b74565b805180835260209291819084018484015e5f828201840152601f01601f1916010190565b90815181526001600160a01b03602083015116602082015260c080612bfd604085015160e0604086015260e0850190612ba5565b93606081015160608501526080810151608085015260a081015160a08501520151151591015290565b60041115612c3057565b634e487b7160e01b5f52602160045260245ffd5b906008821015612c305752565b602435906001600160a01b03821682036105eb57565b600435906001600160a01b03821682036105eb57565b9181601f840112156105eb5782359167ffffffffffffffff83116105eb576020808501948460051b0101116105eb57565b60406003198201126105eb5760043567ffffffffffffffff81116105eb5781612cd991600401612c7d565b929092916024359067ffffffffffffffff82116105eb57612cfc91600401612c7d565b9091565b90602080835192838152019201905f5b818110612d1d5750505090565b8251845260209384019390920191600101612d10565b9181601f840112156105eb5782359167ffffffffffffffff83116105eb57602083818601950101116105eb57565b610100810190811067ffffffffffffffff821117612d7e57604052565b634e487b7160e01b5f52604160045260245ffd5b6080810190811067ffffffffffffffff821117612d7e57604052565b60e0810190811067ffffffffffffffff821117612d7e57604052565b90601f8019910116810190811067ffffffffffffffff821117612d7e57604052565b60405190612df982612dae565b5f60c083828152826020820152606060408201528260608201528260808201528260a08201520152565b51906001600160a01b03821682036105eb57565b81601f820112156105eb5780519067ffffffffffffffff8211612d7e5760405192612e6c601f8401601f191660200185612dca565b828452602083830101116105eb57815f9260208093018386015e8301015290565b519081151582036105eb57565b91909160e0818403126105eb5760405190612eb482612dae565b819381518352612ec660208301612e23565b602084015260408201519067ffffffffffffffff82116105eb5782612ef460c09492612f1d94869401612e37565b6040860152606081015160608601526080810151608086015260a081015160a086015201612e8d565b910152565b67ffffffffffffffff8111612d7e5760051b60200190565b91908260409103126105eb576020825192015190565b15612f5757565b606460405162461bcd60e51b815260206004820152601560248201527f4172726179206c656e677468206d69736d6174636800000000000000000000006044820152fd5b15612fa257565b606460405162461bcd60e51b815260206004820152601460248201527f42617463682073697a6520746f6f206c617267650000000000000000000000006044820152fd5b91908110156115e95760051b0190565b3560ff811681036105eb5790565b906020828203126105eb57815167ffffffffffffffff81116105eb5761302a9201612e9a565b90565b5f19811461303b5760010190565b634e487b7160e01b5f52601160045260245ffd5b9190820391821161303b57565b6020818303126105eb5780519067ffffffffffffffff82116105eb57019080601f830112156105eb57815161309081612f22565b9261309e6040519485612dca565b81845260208085019260051b8201019283116105eb57602001905b8282106130c65750505090565b81518152602091820191016130b9565b906130e082612f22565b6130ed6040519182612dca565b82815280926130fe601f1991612f22565b0190602036910137565b80518210156115e95760209160051b010190565b908060209392818452848401375f828201840152601f01601f1916010190565b9190820180921161303b57565b335f9081527f7d7ffb7a348e1c6a02869081a26547b49160dd3df72d1d75a570eb9b698292ec602052604090205460ff161561318157565b63e2517d3f60e01b5f52336004527fa49807205ce4d355092ef5a8a18f56e8913cf4a201fbe287825b095693c2177560245260445ffd5b805f525f60205260405f206001600160a01b0333165f5260205260ff60405f205416156131e25750565b63e2517d3f60e01b5f523360045260245260445ffd5b6001600160a01b0381165f9081527ff179aafcc4ff8137fca1ef3b9ec4d165f87016ba123e7973fba770bc55e240e3602052604090205460ff166132c4576001600160a01b03165f8181527ff179aafcc4ff8137fca1ef3b9ec4d165f87016ba123e7973fba770bc55e240e360205260408120805460ff191660011790553391907f71f3d55856e4058ed06ee057d79ada615f65cdf5f9ee88181b914225088f834f907f2f8788117e7eff1d82e926ec794901d17c78024a50270940304540a733656f0d9080a4600190565b505f90565b805f525f60205260405f206001600160a01b0383165f5260205260ff60405f205416155f1461335057805f525f60205260405f206001600160a01b0383165f5260205260405f20600160ff198254161790556001600160a01b03339216907f2f8788117e7eff1d82e926ec794901d17c78024a50270940304540a733656f0d5f80a4600190565b50505f90565b60ff6002541661336257565b7fd93c0665000000000000000000000000000000000000000000000000000000005f5260045ffd5b60026001541461339b576002600155565b7f3ee5aeb5000000000000000000000000000000000000000000000000000000005f5260045ffd5b6001600160a01b0381165f9081527ff179aafcc4ff8137fca1ef3b9ec4d165f87016ba123e7973fba770bc55e240e3602052604090205460ff16156132c4576001600160a01b03165f8181527ff179aafcc4ff8137fca1ef3b9ec4d165f87016ba123e7973fba770bc55e240e360205260408120805460ff191690553391907f71f3d55856e4058ed06ee057d79ada615f65cdf5f9ee88181b914225088f834f907ff6391f5c32d9c69d2a47ea670b442974b53935d1edc7fd64eb21e047a839171b9080a4600190565b805f525f60205260405f206001600160a01b0383165f5260205260ff60405f2054165f1461335057805f525f60205260405f206001600160a01b0383165f5260205260405f2060ff1981541690556001600160a01b03339216907ff6391f5c32d9c69d2a47ea670b442974b53935d1edc7fd64eb21e047a839171b5f80a460019056fea264697066735822122063a09a493ac969d21ed96850c54d28c6c53f4156b41d1c1aee8f2c4acc53190164736f6c634300081e00332f8788117e7eff1d82e926ec794901d17c78024a50270940304540a733656f0d7d7ffb7a348e1c6a02869081a26547b49160dd3df72d1d75a570eb9b698292ecf179aafcc4ff8137fca1ef3b9ec4d165f87016ba123e7973fba770bc55e240e3ad3228b676f7d3cd4284a5443f17f1962b36e491b30a40b2405849e597ba5fb5","linkReferences":{}},"methodIdentifiers":{"ADMIN_ROLE()":"75b238fc","BATCH_SIZE_LIMIT()":"ad59db65","DEFAULT_ADMIN_ROLE()":"a217fddf","GAS_LIMIT_PER_OPERATION()":"e0cd5047","MODERATOR_ROLE()":"797669c9","batchRateRecordings(uint256[],uint8[])":"355fc482","batchSetRecordingLicenses(uint256[],uint8[],string[])":"7c7353a7","batchVoteOnRecordings(uint256[],bool[])":"389ea613","emergencyPause()":"51858e27","emergencyUnpause()":"4a4e3bd5","getRecordingWithAllData(uint256)":"28b6839d","getRecordingsByLocationOptimized(int256,int256,int256,int256,uint256,uint256)":"79bcac68","getRoleAdmin(bytes32)":"248a9ca3","getSystemStats()":"d1ce59a7","getUserDashboard(address)":"faaf8076","grantModeratorRoleAcrossContracts(address)":"7ddd21a8","grantRole(bytes32,address)":"2f2ff15d","hasRole(bytes32,address)":"91d14854","licenseManager()":"0ad51144","paused()":"5c975abb","recordingManager()":"e9e49a14","registerUserAndAddRecording(string,string,string,string,int256,int256,string[],uint256,uint8,string,uint8)":"8afee96f","renounceRole(bytes32,address)":"36568abe","revokeModeratorRoleAcrossContracts(address)":"d4182cf4","revokeRole(bytes32,address)":"d547741f","supportsInterface(bytes4)":"01ffc9a7","userManager()":"5c8a7687","votingSystem()":"a4fcfbd8"},"id":34}